:100000000C9450020C948F020C948F020C948F026B
:100010000C948F020C948F020C948F020C948F021C
:100020000C948F020C948F020C94862A0C945F2BF4
:100030000C94CE230C948F020C948F020C948F029C
:100040000C948F020C948F020C948F020C948F02EC
:100050000C948F020C9474240C948F020C948F02D5
:100060000C948F020C948F020C948F020C948F02CC
:100070000C948F020C948F020C948F020C948F02BC
:100080000C948F020C948F020C948F020C948F02AC
:100090000C948F020C948F020C948F020C948F029C
:1000A0000C948F020C948F020C948F022B0014007E
:1000B0001A000800150017001C0018000C001200A0
:1000C00013002A00E00004001600070009000A00DF
:1000D0000B000D000E000F0033003400E1001D0086
:1000E0001B00060019000500110010003600370043
:1000F0003800E5002900E000E300E200777C2C00F6
:100100002800787CE600E700E400290001001E00DA
:100110001F002000210022002300240025002600CB
:1001200027002A000100000000000000000000007D
:100130005000510052004F0000000000010000007C
:1001400000000000000000000000000000000000AF
:100150000000000001000100010001000100010099
:1001600001000100010001000100010001001E0268
:100170001F0220022102220223022402250226025B
:1001800027022A000100000000000000000000001B
:100190002D002E002F023002310235000100000038
:1001A00000000000000000002D022E022F00300091
:1001B00031003502010001000100010001000100D1
:1001C0000100010001000100010001000100000028
:1001D000000000000000000000000000000000001F
:1001E000000000000100000000000000000000000E
:1001F00000000000000000000000000001000000FE
:1002000000000000000000000000000000000000EE
:1002100000000000010001000100010001000100D8
:1002200001000100010001000100010000000000C8
:10023000000000002A2B2800000000000000000041
:100240000000000000000029000000002C1E3420E7
:10025000212224342627252E362D3738271E1F200D
:100260002122232425263333362E37381F04050652
:100270000708090A0B0C0D0E0F1011121314151696
:100280001718191A1B1C1D2F3130232D3504050694
:100290000708090A0B0C0D0E0F1011121314151676
:1002A0001718191A1B1C1D2F3130354C0000000087
:1002B000000000000000000000000000000000003E
:1002C000000000000000000000000000000000002E
:1002D0007E0F00D4FFFFFFC7000000781E0343001D
:1002E0006F0072006E0065006C006900750073009D
:1002F00020007200650076003100000014035900F0
:1003000075007300680061006B006F0062006F0091
:1003100000000403090409025B00030100A0FA09BC
:100320000400000103010100092111010001224420
:100330000007058103080001090401000203000011
:10034000000921110100012222000705820320007B
:100350000107050303200001090402000103000056
:100360000009211101000122B600070584032000C5
:1003700001120100020000000865320500000101C1
:100380000200010660FF0961A1010962150026FF54
:10039000009520750881020963150026FF0095204D
:1003A00075089102C005010902A10185020901A198
:1003B0000005091901290815002501950875018115
:1003C000020501093009311581257F9502750881E3
:1003D0000609381581257F950175088106050C0AE7
:1003E00038021581257F950175088106C0C0050179
:1003F0000980A101850319012AB700150126B7005C
:10040000950175108100C0050C0901A10185041931
:10041000012AA002150126A002950175108100C0D5
:1004200005010906A1018506050719E029E7150060
:1004300025019508750181020507190029EF1500AE
:10044000250195F075018102050819012905950519
:1004500075019102950175039101C005010906A17D
:1004600001050719E029E7150025019508750181A7
:10047000029501750881010507190029FF1500265D
:10048000FF0095067508810005081901290515006A
:100490002501950575019102950175039101C00033
:1004A00011241FBECFEFDAE0DEBFCDBF04B603FEDE
:1004B00018C08091B3029091B402A091B502B0919E
:1004C000B6028730904BA740B04B59F41092B3025C
:1004D0001092B4021092B5021092B602E0E0F8E376
:1004E000099520E080E090E0A0E0B0E0E0E0F0E0FE
:1004F00011E0A0E0B1E0ECEAFCE502C005900D924D
:10050000A83AB107D9F722E0A8EAB1E001C01D92EC
:10051000A33BB207E1F70E94DE160C94EF2D0C947A
:100520000000A0E0B0E0E7E9F2E00C944C2D982F39
:10053000962B9430B8F44C30A8F450E09CE0699FBE
:10054000400D511D1124FA0190E3899FE00DF11D2A
:100550001124EE0FFF1FE455FF4F85919591E2E0C6
:100560000C94682D81E090E0FACFA0E0B0E0EBEBD6
:10057000F2E00C944C2D81E0E2E00C94682DA0E0B8
:10058000B0E0E5ECF2E00C944C2D81E0E2E00C945C
:10059000682DA0E0B0E0EFECF2E00C944C2D0E944E
:1005A000B502E2E00C94682DA0E0B0E0EAEDF2E0E4
:1005B0000C944C2D81E0E2E00C94682DA0E0B0E0BA
:1005C000E4EEF2E00C944C2D81E0E2E00C94682D16
:1005D000A0E0B0E0EEEEF2E00C944C2D81E0E2E021
:1005E0000C94682DA0E0B0E0E8EFF2E00C944C2D04
:1005F0000E94E802E2E00C94682DA0E0B0E0E3E0A5
:10060000F3E00C944C2DE2E00C94682DA0E0B0E0F7
:10061000ECE0F3E00C944C2DE2E00C94682DA0E0AB
:10062000B0E0E5E1F3E00C944C2D0E94FD02E2E025
:100630000C94682DA0E0B0E0E0E2F3E00C944C2DC7
:10064000E2E00C94682DA0E0B0E0E9E2F3E00C9465
:100650004C2DE2E00C94682DA7E0B0E0E2E3F3E07B
:100660000C944C2D49835A839E833091AF0189812C
:100670009A8131111AC03E81311599F0211589F006
:100680000E94A70A8F83682F89819A810E94730A2A
:1006900069817A818F810E94DB132796E2E00C94B6
:1006A000682D0E948D0A8F83F3CF0E94A70A69816B
:1006B0007A81F1CFA0E0B0E0E0E6F3E00C944C2DBD
:1006C000FC01262F40815181628173818481958153
:1006D0000E942C03E2E00C94682DA0E0B0E0E3E778
:1006E000F3E00C944A2D8C0161E00E945A03B8019A
:1006F0000E94BF02811539F061E0C8010E945A03CF
:10070000B8010E94C902E4E00C94662DA2E0B0E0BA
:10071000ECE8F3E00C944A2D8C0160E00E945A034F
:1007200089839A83B8010E940603B80189819A815E
:100730000E940F032296E4E00C94662DA0E0B0E046
:10074000E4EAF3E00C944C2D91E001C0990F8A95F6
:10075000EAF7892F0E942C09E2E00C94682DA1E0B1
:10076000B0E0E5EBF3E00C944C2D898381E0098047
:1007700001C0880F0A94EAF70E94621089810E94E2
:100780009E032196E2E00C94682DA0E0B0E0EBEC33
:10079000F3E00C944C2D81E0E2E00C94682DA0E095
:1007A000B0E0E5EDF3E00C944C2D81E0E2E00C9438
:1007B000682DA0E0B0E0EFEDF3E00C944C2D0E942A
:1007C000C503E2E00C94682DA1E0B0E0EAEEF3E0AE
:1007D0000C944C2D89830E94A20889810E94CF032A
:1007E00089810E94D9032FEF84E39CE0215080404F
:1007F0009040E1F700C000002196E2E00C94682DE3
:10080000A0E0B0E0E6E0F4E00C944C2D81E00E9422
:10081000E4030E949E24E2E00C94682DA0E0B0E086
:10082000E4E1F4E00C944C2D80E00E94E4030E948B
:10083000C824E2E00C94682DA0E0B0E0E2E2F4E02D
:100840000C94482D7C0161E00E945A038C01B70191
:100850000E94DE02811509F452C0B701C8010E944E
:10086000F202811509F44BC0B701C8010E944D1F67
:10087000811509F444C0B701C8010E94FB1D811510
:10088000F1F1B701C8010E9409198115C1F1B70141
:10089000C8010E94D618811591F1B701C8010E94C4
:1008A000491E811561F1B701C8010E940615811525
:1008B00031F1F7018581811589F00A35FCE71F07C1
:1008C00039F180F40130ECE71E07F9F00330FCE762
:1008D0001F07C9F001158CE7180779F0C7010E94BE
:1008E000D4020EC00B35ECE71E07A9F00C35FCE76F
:1008F0001F07A1F70E94FE0FF1CF0E94000480E0C5
:10090000E6E00C94642D0E9427100E940E04F7CF9D
:100910000E940F10E3CF0E941B10E0CFA0E0B0E0D8
:10092000E4E9F4E00C944C2D0E941A030E946A231F
:100930000E94E704E2E00C94682DA0E0B0E0E3EA56
:10094000F4E00C944C2D0E94F3040E9423030E94B7
:100950008723E2E00C94682DA0E0B0E0E2EBF4E045
:100960000C944C2D81E0E2E00C94682DA0E0B0E006
:10097000ECEBF4E00C944C2DE2E00C94682DA2E03A
:10098000B0E0E5ECF4E00C944C2D8A830E94AC04BA
:100990008983811519F08A810E94B6048981229683
:1009A000E2E00C94682DA0E0B0E0E9EDF4E00C94F6
:1009B0004C2DE2E00C94682DA0E0B0E0E2EEF4E013
:1009C0000C944C2D0E94BF04E2E00C94682DA0E032
:1009D000B0E0EDEEF4E00C944C2D80E00E94DC04DD
:1009E000E2E00C94682DA0E0B0E0E9EFF4E00C94B4
:1009F0004C2D0E947A200E94DC04E2E00C94682DC9
:100A0000A0E0B0E0E6E0F5E00C944B2D0E947A20E7
:100A1000182F8091AA01811779F01093AA010E94E2
:100A200060246093AB017093AC018093AD0190930F
:100A3000AE01812F0E94DC04E3E00C94672DADE051
:100A4000B0E0E5E2F5E00C944C2D488759876A87C1
:100A50007B878C879D8791110E947E0E1F8286E086
:100A6000FE013896DE01119601900D928A95E1F70C
:100A70008D8181110DC029813A814B815C816D810D
:100A80007E818F810E94800D2D96E2E00C94682D6E
:100A9000CE0101960E946D038111EDCFF5CFA0E04C
:100AA000B0E0E5E5F5E00C944C2DFC01248121300B
:100AB00021F4808191810E94D20AE2E00C94682D99
:100AC000A0E0B0E0E6E6F5E00C944C2D611539F0BD
:100AD0000E94851A0E94521BE2E00C94682D0E942D
:100AE000D51AF8CFA0E0B0E0E8E7F5E00C944B2D84
:100AF000182F811599F08CEF810F813A90F4812F96
:100B00000E944221811529F0812F0E9410220E940B
:100B10006A0F812F0E94EF210E946A0FE3E00C947C
:100B2000672D80E2810F883050F481E011FD84E070
:100B300010FD880F12FD82950E94370EEDCF8BE5D8
:100B4000810F833038F4212F2452330BC9010E94C6
:100B5000CD20E4CFE8E5E10FEB3150F4F0E0EE0F0B
:100B6000FF1FE35EFE4F808191810E94F220D6CF6D
:100B700083E3810F833190F661E0812F0E9460054D
:100B8000CDCFA0E0B0E0E7ECF5E00C944C2D811562
:100B900041F09CEF980F913A38F40E9410220E9485
:100BA0006A0FE2E00C94682D90E2980F983058F4A8
:100BB000982F81E091FD84E090FD880F92FD829551
:100BC0000E94450EECCF9BE5980F933020F4CD01A9
:100BD0000E94CD20E6CF98E5980F9B3120F4CD01FF
:100BE0000E94F220DECF93E3980F9331D0F660E0BD
:100BF0000E946005D6CFA1E0B0E0E1E0F6E00C9401
:100C00004A2D89838B010E9472050115110539F463
:100C100089810E94C1052196E4E00C94662D8FE93C
:100C20009FE00197F1F700C0000001501109EDCFDE
:100C3000A0E0B0E0EEE1F6E00C944C2D60E570E051
:100C4000893309F0BD010E94FB05E2E00C94682D98
:100C5000A0E0B0E0EEE2F6E00C944C2D811521F01E
:100C60000E94370E0E946A0FE2E00C94682DA0E00B
:100C7000B0E0EDE3F6E00C944C2D811521F00E94DC
:100C8000450E0E946A0FE2E00C94682DA0E0B0E0EF
:100C9000ECE4F6E00C94442D5C018B01FC01F58042
:100CA000E680E2942FE0E2220E941C0EC82E8115FD
:100CB000F9F0CF2CF114E1F0812F807F803461F0C6
:100CC00080E2800F8830F0F0812F807E803221F426
:100CD0000230C0F0E114B1F08091910282FF12C0A5
:100CE00082E00E94C20F0E941C0E91E0C82EC9260D
:100CF000E12FE295EF70103CC0F5F0E0EF50F24DBF
:100D00000C942F2DC12CF4CFF12FFF70EF2E10314A
:100D100018F0E29490EFE922F11499F0E11459F0FF
:100D200080E2800F883010F0011107C08E2D0E94E4
:100D3000370E0E946A0F802F4DC08E2D0E94600ECC
:100D4000F8CF802F0E94C105E11479F080E2800F76
:100D5000883010F0011104C08E2D0E94450E03C092
:100D60008E2D0E946E0E0E946A0FC11409F4C5C038
:100D70000E94100E80FDC1C0F50115820E94020E76
:100D80000E94A109C5010E9454080E94020E0E94FF
:100D9000B409B3C0212F2F70D22E107F103219F05A
:100DA000D29480EFD822013038F0C9F1F11409F45F
:100DB00045C0E114E9F0BFCF8091910282FD14C0DB
:100DC000F11459F0D11429F08D2D0E94370E0E9494
:100DD0006A0F80E00E947205C8CF80E00E94C105C2
:100DE000D11419F28D2DB9CFF11469F0E11004C0BE
:100DF0008D2D0E942806B9CF61E0E612B6CF8D2D69
:100E00000E94C50EB2CFE110B0CF8D2D0E943706E3
:100E10008D2D0E94D90E8D2D0E949D0EA6CFF1140E
:100E200029F076E0E71608F0A0CFE2CF85E0E816DB
:100E300008F09BCF8D2D0E94370697CFE114D1F398
:100E4000093349F49FEFE7EEF3E09150E040F040C2
:100E5000E1F700C00000802F0E94C10586CF812FDE
:100E6000869586958370813058F009F07ECFC80151
:100E70009370F11002C080E090E00E94F22075CFE4
:100E8000C8019370F11002C080E090E00E94CD2074
:100E90006CCF6F2D802F0E94600567CF812F8370EC
:100EA000C1F5F11026C0902F929596959770990FE5
:100EB000990F402F4F70092E01C0440F0A94EAF792
:100EC000802F807104FF09C02FE030E0B90101C01C
:100ED000660F9A95EAF7862F8095169516951370EA
:100EE000842B123081F0133089F0113049F00E94C8
:100EF00045090E947A200E94DC04EAE00C94602DEF
:100F00000E943709F6CF0E945309F3CF0E942C09A3
:100F1000F0CFF11449F110FFECCF902F92959695F8
:100F20009770990F990F402F4F70092E01C0440FF1
:100F30000A94EAF7802F807104FF09C02FE030E0A7
:100F4000F90101C0EE0F9A95EAF78E2F809516955C
:100F500016951370842B123069F0133071F0113034
:100F600031F00E94EC09C5CF823018F2D6CF0E9432
:100F7000DE09BFCF0E94FA09BCCF0E947709B9CF22
:100F80001F70F11439F0812F0E94A109802F0E9457
:100F90002806AFCF802F0E943706812F0E94B40908
:100FA000A8CF023F51F170F4003FC9F0013F91F02A
:100FB000F11409F449C0E11409F443C0802F0E94E0
:100FC000720597CF033F01F1043F91F780919102A1
:100FD00082FD24C0812F8F71F11401F312C0F1142E
:100FE00049F0F5E0EF1608F084CF812F8F710E9451
:100FF000CB097FCF26E0E216F6CF812F8F71F1105B
:10100000CDCF0E94A10975CFF11429F0812F8F71E6
:101010000E9490096ECF0E9484096BCFF11431F0C9
:1010200063E0812F8F710E94940F63CF81E00E9453
:10103000C20F62E0E61608F45CCF82E00E94C20FA5
:1010400058CF812F8F71DDCFE11479F0093349F446
:101050007FEF87EE93E0715080409040E1F700C051
:101060000000802F0E94C10544CF812F8F7196CF41
:10107000A2E0B0E0EEE3F8E00C944A2D8C01FC0114
:101080006081718185810E94E40A89839A830E942C
:10109000080A0E94230969817A81C8010E944606D4
:1010A0002296E4E00C94662DA0E0B0E0EAE5F8E0DA
:1010B0000C944A2D8C01FC0184818115A1F0C8019A
:1010C0000E941C04811112C00E941C0E811559F04F
:1010D000F8018581811539F08091910282FF03C06A
:1010E00082E00E94C20FE4E00C94662DC8010E94C9
:1010F0003808C8010E948603F6CFA0E0B0E0E3E81C
:10110000F8E00C944C2DCD010E94CD2080E090E0C1
:101110000E94F2200E947E0E0E946A0F0E94761B9F
:101120000E94521BE2E00C94682DA0E0B0E0EBE9D5
:10113000F8E00C944C2D0E9431220E947D08E2E0E0
:101140000C94682DA0E0B0E0E8EAF8E00C944C2D97
:101150000E94550E0E949508E2E00C94682DA0E0D4
:10116000B0E0E5EBF8E00C944C2D282F92959F70A1
:101170009630B1F068F4925F9F70923038F481E05D
:10118000203F59F038F481E0283E38F080E005C077
:101190009A5FF2CF81E0243FC9F7E2E00C94682D1A
:1011A00091E0813F09F090E081E0283E08F080E086
:1011B000892BF3CFA0E0B0E0E0EEF8E00C944C2DEA
:1011C000FC01248180E0211531F0808191810E9411
:1011D000D20A0E94AF08E2E00C94682DA6E0B0E0CD
:1011E000E4EFF8E00C944C2D2696E2E00C94682D88
:1011F000A7E0B0E0EEEFF8E00C944C2D2796E2E08B
:101200000C94682DA0E0B0E0E8E0F9E00C944C2DDF
:10121000E2E00C94682DA0E0B0E0E1E1F9E00C948C
:101220004C2D0E940209E2E00C94682DA0E0B0E091
:10123000ECE1F9E00C944C2D0E940B098093C30162
:10124000E2E00C94682DA0E0B0E0E9E2F9E00C9453
:101250004C2DE2E00C94682DA0E0B0E0E2E3F9E070
:101260000C944C2D0E941609E2E00C94682DA0E02D
:10127000B0E0EDE3F9E00C944C2D9091C301892B83
:101280000E941609E2E00C94682DA0E0B0E0EBE4C7
:10129000F9E00C944C2D9091C30189230E9416090A
:1012A000E2E00C94682DA0E0B0E0E9E5F9E00C94F0
:1012B0004C2D9091C30189270E941609E2E00C94FD
:1012C000682DA0E0B0E0E7E6F9E00C944C2D0E9418
:1012D0000209E2E00C94682DA0E0B0E0E2E7F9E05A
:1012E0000C944C2D0E946109E2E00C94682DA0E062
:1012F000B0E0EDE7F9E00C944C2D0E946C0980936E
:10130000C201E2E00C94682DA0E0B0E0EAE8F9E068
:101310000C944C2D80E00E947709E2E00C94682D3B
:10132000A0E0B0E0E6E9F9E00C944C2D91E001C0BA
:10133000990F8A95EAF7892F0E947709E2E00C94C9
:10134000682DA0E0B0E0E7EAF9E00C944C2D21E034
:1013500001C0220F8A95EAF78091C201822B0E9478
:101360007709E2E00C94682DA0E0B0E0EAEBF9E048
:101370000C944C2D21E030E0A90101C0440F8A9566
:10138000EAF7842F80959091C20189230E94770902
:10139000E2E00C94682DA0E0B0E0E1EDF9E00C94FF
:1013A0004C2D21E001C0220F8A95EAF78091C201FD
:1013B00082270E947709E2E00C94682DA0E0B0E05B
:1013C000E4EEF9E00C944C2D9091C201892B0E941F
:1013D0007709E2E00C94682DA0E0B0E0E2EFF9E0DC
:1013E0000C944C2D9091C20189230E947709E2E070
:1013F0000C94682DA0E0B0E0E0E0FAE00C944C2DF5
:101400009091C20189270E947709E2E00C94682D2F
:10141000A0E0B0E0EEE0FAE00C944C2DE2E00C9499
:10142000682DA0E0B0E0E7E1FAE00C944B2D11E06C
:1014300061FD14E060FD110F62FD129593E0769559
:1014400067959A95E1F79B01220F331F260F371FEF
:10145000FA01E20FF31FAD0190E06191DF019C0101
:10146000042E02C0369527950A94E2F72695220BA2
:101470002627212326272E934F5F5F4F43305105A8
:1014800061F7E3E00C94672DA0E0B0E0EAE4FAE055
:101490000C944C2DA82FA77023E0969587952A953C
:1014A000E1F79C01220F331F820F931FFB01E80F0E
:1014B000F91F40E050E080E0219130E00A2E02C0A8
:1014C000369527950A94E2F72170042E01C0220F69
:1014D0000A94EAF7822B4F5F5F4F4330510561F763
:1014E000E2E00C94682DA0E0B0E0E9E7FAE00C94AB
:1014F0004C2D262F943070F48C3060F4682F70E0FF
:101500008CE0989F600D711D112440EB51E0822FFB
:101510000E94110AE2E00C94682DA0E0B0E0E3E93B
:10152000FAE00C944C2D292F943078F48C3068F428
:1015300090E060EB71E03CE0239F800D911D112451
:101540000E94440AE2E00C94682D80E0FBCFA2E008
:10155000B0E0EDEAFAE00C94472D89839A83E0909D
:10156000C2018091C301E82A05E010E0F12CC70117
:10157000002E02C0959587950A94E2F780FD09C078
:1015800001501109A0F7D12C8D2D2296E7E00C9483
:10159000632DD02E69817A81802F0E94EE130197EE
:1015A00079F3F2CFA2E0B0E0E8EDFAE00C944C2D34
:1015B00089839A830E94A70A69817A810E94EE1327
:1015C0002296E2E00C94682DA1E0B0E0EAEEFAE0A9
:1015D0000C944A2D8B019091AF01911539F0CB01FC
:1015E0000E94D20A2196E4E00C94662D811569F0E0
:1015F000CB010E94A70A8983682FC8010E94730A41
:10160000B80189810E94EE13EDCFCB010E948D0AB3
:101610008983F6CFA0E0B0E0E0E1FBE00C944C2D34
:10162000E1E0F0E0A1E001C0AA0F6A95EAF76A2FB5
:10163000DF0101C0AA0F4A95EAF76A2B01C0EE0F3D
:101640002A95EAF7962F9823961304C08E2BE2E092
:101650000C94682DE0958E23FACFA0E0B0E0E3E390
:10166000FBE00C944C2D242F462F682F8091C20153
:101670000E940A0B0E947709E2E00C94682DA0E01A
:10168000B0E0E5E4FBE00C944A2D0091C4018091A8
:10169000C501801303C0E4E00C94662D87E0089F29
:1016A000F0011124EA53FE4F2081318142815381A0
:1016B0006481758186810E94F8080F5F1F4F077053
:1016C000E6CFA0E0B0E0E7E6FBE00C944C2D2091E3
:1016D000FE013091FF0140910002509101026091A2
:1016E000020270910302809104020E94F808E2E075
:1016F0000C94682DA0E0B0E0E0E8FBE00C944C2DE9
:1017000080910402803108F048C080910302811565
:1017100009F443C0E091C4012091C5013091FF015B
:101720004091FE012E17C9F16E2F70E087E0E89F0F
:10173000F0011124DF01AA53BE4F14968C91149727
:10174000811571F111968C911197831329C08C9199
:10175000841326C015968C911597811121C012967D
:101760008D919D91A0910002B09101028A1B9B0B6B
:10177000883C9105A8F4809104028F708061809369
:101780000402E453FE4F80818F70806180838EEF6E
:1017900091E00E9454080E943F0BE2E00C94682DF7
:1017A000FB01E395E770BECFA0E0B0E0EAEDFBE01F
:1017B0000C944C2DE091C4019091C501E91304C033
:1017C00080E0E2E00C94682D2E2F30E057E0E59F9A
:1017D000F0011124EA53FE4F5181561306C0508187
:1017E000581303C05581541304C0F901E395E77001
:1017F000E5CF81E0E6CF8F929F92AF92BF92DF92CA
:10180000EF92FF920F931F93CF93DF93CDB7DEB785
:101810002D970FB6F894DEBF0FBECDBF8C0186E0CA
:10182000F801DE01189601900D928A95E1F7F80112
:10183000F58084819EEF892E91E0992E909102028D
:1018400091111BC0811509F40AC1F11409F44BC1AF
:10185000C8010E94DA08811509F445C187E0F80142
:10186000D40101900D928A95E1F7C4010E944F05C1
:101870000E947A0B0E94610BF2C0E080A280B380CC
:10188000D09003022091000230910102A501421B79
:10189000530BD11409F4E6C0483C510508F0B1C01F
:1018A000811509F4DCC09091FF01918080910402C0
:1018B000803108F076C0991233C09091FE019E11DC
:1018C0002FC0F11068C08F708061809304020E9465
:1018D000610B8EEF91E00E94540880910402F801A0
:1018E0008683F12C8F2D2D960FB6F894DEBF0FBE98
:1018F000CDBFDF91CF911F910F91FF90EF90DF90BF
:10190000BF90AF909F908F9020E030E040E050E09B
:1019100060E070E090E0A0E0B0E0E0E0F0E008958A
:10192000F11039C040E0692D8E2D0E94D40B40E0AB
:10193000692D8E2D0E94D40BF82E8111D2CF88856F
:1019400099850E94D20A292F22952F70903450F445
:101950009F70223080F0911599F0F80196819031B6
:1019600078F4C0CF2A5F2F70223078F0C8010E942F
:101970005408FD2CB7CF911519F0811509F4B2CF99
:10198000805E883008F4AECFF1CF803F08F4AACF54
:10199000815F8330F7CF80910402816080930402DD
:1019A000A0CF991207C09091FE019E1103C0F114BF
:1019B00009F479C0C8010E94DA08811509F493C0BE
:1019C000F11409F490C080910402803288F02091D3
:1019D000FE013091FF0129833A83AB82BC82909152
:1019E00002029D831E828F83CE0101960E945408BD
:1019F00087E0F801AEEFB1E001900D928A95E1F732
:101A000037CF909104029031A0F4488559856A85BA
:101A10007B858C859D850E94EE088EEF91E00E946B
:101A2000540887E0F40111928A95E9F70E94610B4E
:101A300058CF8115A1F02091FF0181812813BACFE1
:101A40008091FE018E11B6CFF110B4CF9683C801FC
:101A50000E94540887E0F40111928A95E9F7FF2467
:101A6000F39440CF483C510508F041C08115B9F3CB
:101A7000F114C9F19091FF01818198132AC08091DE
:101A8000FE018E1126C08091040280FD19C08031B4
:101A9000B8F08683807F803F39F08681982F907FD1
:101AA000905F8F70892B8683C8010E94540887E05D
:101AB000F801AEEFB1E001900D928A95E1F7DACE30
:101AC00087E0F801AEEFB1E001900D928A95E1F761
:101AD000C6CFC8010E94DA0881118ACF8091040222
:101AE000816080930402C8010E945408B8CF4885E1
:101AF00059856A857B858C859D850E94EE0891CFEE
:101B0000AEE0B0E0E6E8FDE00C944B2D2887398785
:101B10004A875B876C877D878E87CE0108960E94F7
:101B2000FB0B6C858115A9F0611541F0288539857D
:101B30004A855B857D858E850E94F80817E0809137
:101B4000C4019091C50189133AC02E96E3E00C942C
:101B5000672D87E0FE013896DE01119601900D9207
:101B60008A95E1F7611551F3A091C5018A2F90E0A4
:101B70008395877090E02091C4012817190689F099
:101B800097E09A9FD0011124AA53BE4FFE013196CF
:101B900001900D929A95E1F78093C5010E943F0B49
:101BA000CDCF0E94A2081092C5011092C40187E017
:101BB000EEEFF1E0DF011D928A95E9F7BFCF189FA4
:101BC000C00111248A539E4F0E94FB0B811509F41A
:101BD000BCCFE091C4011E9FF0011124EA53FE4FD7
:101BE00020813181428153816481758186810E9487
:101BF000F8082091C4012F5F3F4FC901877080937F
:101C0000C4019DCFA0E0B0E0E8E0FEE00C944C2DD4
:101C100080912D02869586958695E2E00C94682D3C
:101C2000A0E0B0E0E6E1FEE00C944C2D80912D02A6
:101C30008770E2E00C94682DA0E0B0E0E2E2FEE004
:101C40000C944C2D90912D02977081E0911101C060
:101C500080E0E2E00C94682DA0E0B0E0E2E3FEE07A
:101C60000C944C2D80915902E2E00C94682DA0E078
:101C7000B0E0EDE3FEE00C944C2D90915902982BCE
:101C800090935902E2E00C94682DA0E0B0E0EBE400
:101C9000FEE00C944C2D982F909580915902892349
:101CA00080935902E2E00C94682DA0E0B0E0EBE5EF
:101CB000FEE00C944C2D10925902E2E00C94682D39
:101CC000A0E0B0E0E6E6FEE00C944C2D90915802C6
:101CD000982B90935802E2E00C94682DA0E0B0E0BD
:101CE000E4E7FEE00C944C2D982F909580915802DB
:101CF000892380935802E2E00C94682DA0E0B0E0C4
:101D0000E4E8FEE00C944C2D10925802E2E00C94B2
:101D1000682DA0E0B0E0EFE8FEE00C944C2DE2E08E
:101D20000C94682DA0E0B0E0E8E9FEE00C944C2DA6
:101D30000E94890EE2E00C94682DA0E0B0E0E3EA96
:101D4000FEE00C944C2D90912E02292F282331F087
:101D50008095892380932E020E94920EE2E00C94DB
:101D6000682DA0E0B0E0E7EBFEE00C944C2DE2E043
:101D70000C94682DA0E0B0E0E0ECFEE00C944C2D5B
:101D80000E94B10EE2E00C94682DA0E0B0E0EBEC14
:101D9000FEE00C944C2D90912F02292F2823281718
:101DA00029F0982B90932F020E94BA0EE2E00C9437
:101DB000682DA0E0B0E0EFEDFEE00C944C2D90918A
:101DC0002F02292F282331F08095892380932F0219
:101DD0000E94BA0EE2E00C94682DA0E0B0E0E3EFC0
:101DE000FEE00C944C2D80912F02811529F0109269
:101DF0002F0280E00E94BA0EE2E00C94682DA0E071
:101E0000B0E0E5E0FFE00C944B2D10915902809179
:101E10005802182B80912F02811531F0182B0E9447
:101E2000172181110E94ED0E812FE3E00C94672DA4
:101E3000A0E0B0E0EEE1FFE00C944A2D0091020139
:101E4000109103010E94FF0EF801808300910201AE
:101E50001091030148E050E065E272E0C8010E9481
:101E6000872D892B59F088E0F801A5E2B2E00190B6
:101E70000D928A95E1F7C8010E948E20E4E00C944F
:101E8000662DA0E0B0E0E7E4FFE00C944A2D00915D
:101E90000001109101010E94FF0EF8018183009161
:101EA00000011091010140E250E065E072E0C801DC
:101EB0000E94872D892B59F080E2F801A5E0B2E05D
:101EC00001900D928A95E1F7C8010E94A120E4E0FB
:101ED0000C94662DA0E0B0E0E0E7FFE00C944C2D00
:101EE0000E940D23813049F48091900287FF05C044
:101EF0000E94410FE2E00C94682D0E94180FFACF67
:101F0000A0E0B0E0E6E8FFE00C944C2DE2E00C9499
:101F1000682DA0E0B0E0EFE8FFE00C944C2D0E94AB
:101F2000800FE2E00C94682DA0E0B0E0EAE9FFE069
:101F30000C944C2D9091910292FF13C0982F990F01
:101F4000990F990F962B90932D020E94A1098091D1
:101F50002D028695869586950E94890FE2E00C9465
:101F6000682D0E94A109FACFA0E0B0E0EAEBFFE003
:101F70000C944C2D10922D0280E00E94890FE2E01B
:101F80000C94682DA0E0B0E0E8ECFFE00C944C2D40
:101F900090912D028095892380932D02282F277000
:101FA00069F4891759F09091910292FF07C08695C4
:101FB000869586950E94B4090E94B40FE2E00C94C5
:101FC000682DA0E0B0E0E7EEFFE00C944C2D90917E
:101FD000910292FB222720F9281769F080FB92F9E1
:101FE0009093910280919002909191020E947D10B5
:101FF00082E00E94C20FE2E00C94682DA0E0B0E005
:10200000E4E0F0E10C944C2D80919102002482FFD9
:102010000394802D0E94E10FE2E00C94682DA0E073
:10202000B0E0E5E1F0E10C944C2D81E00E94E10F7D
:10203000E2E00C94682DA0E0B0E0E1E2F0E10C9465
:102040004C2D80E00E94E10FE2E00C94682DA0E0AE
:10205000B0E0EDE2F0E10C944C2D6FEF7FEFCD019D
:102060000E94D92DE2E00C94682DA0E0B0E0EBE3F3
:10207000F0E10C944C2DCD010E94A52D853E9E4F84
:1020800029F40E94A11EE2E00C94682D80E0FBCFB1
:10209000A0E0B0E0EEE4F0E10C944C2D82E090E0A2
:1020A0000E949D2DE2E00C94682DA0E0B0E0EBE5ED
:1020B000F0E10C944C2D83E090E00E949D2DE2E035
:1020C0000C94682DA0E0B0E0E8E6F0E10C944C2D13
:1020D000682F83E090E00E94BB2DE2E00C94682D15
:1020E000A0E0B0E0E6E7F0E10C944C2D84E090E055
:1020F0000E94A52DE2E00C94682DA0E0B0E0E3E89A
:10210000F0E10C944C2DBC0184E090E00E94D92DAC
:10211000E2E00C94682DA0E0B0E0E1E9F0E10C947D
:102120004C2DAB01BC018FE090E00E94CD2DE2E090
:102130000C94682DA0E0B0E0E0EAF0E10C944C2DA6
:10214000AB01BC0183E190E00E94CD2DE2E00C9454
:10215000682DA0E0B0E0EFEAF0E10C944C2DBD0159
:10216000CB010E949A10E2E00C94682DA0E0B0E050
:10217000ECEBF0E10C944C2DBD01CB010E948B10D7
:102180000E94A910E2E00C94682DA8E0B0E0EBEC0E
:10219000F0E10C944C2D65EE7EEF80E090E00E9423
:1021A000D92D60E082E090E00E94BB2D81E0809319
:1021B000C3010E94621060E074E184E090E00E943C
:1021C000D92D60E086E090E00E94BB2D60E087E0C2
:1021D00090E00E94BB2D60E070E0AB0188E090E0F1
:1021E0000E94CD2D60E083E290E00E94BB2D60E074
:1021F0008CE090E00E94BB2D60E08DE090E00E94BA
:10220000BB2D19821A821B821C821D821E821F8294
:10221000188648E050E067E170E0CE0101960E9428
:10222000AB2D60E070E0AB018FE190E00E94CD2D1E
:1022300080E00E94C01E0E94171F0E94B6102896C0
:10224000E2E00C94682DA0E0B0E0E9E2F1E10C944A
:102250004C2D0E94C510E2E00C94682DA0E0B0E087
:10226000E4E3F1E10C944C2D682F8EE090E00E94A5
:10227000BB2DE2E00C94682DA6E0B0E0E2E4F1E1D1
:102280000C944A2D0E944C248C0180915A0290910A
:102290005B028017910779F019821A820E944C2400
:1022A000BC0149815A8180E090E00E941F050093A3
:1022B0005A0210935B022696E4E00C94662DA0E08F
:1022C000B0E0E5E6F1E10C944C2D0E9460246093AF
:1022D00068027093690280936A0290936B02609324
:1022E0006402709365028093660290936702E2E055
:1022F0000C94682DA0E0B0E0E0E8F1E10C944C2DE6
:10230000E2E00C94682DA0E0B0E0E9E8F1E10C9483
:102310004C2DE2E00C94682DA0E0B0E0E2E9F1E1A0
:102320000C944C2D0E947A11E2E00C94682DA0E0F0
:10233000B0E0EDE9F1E10C944C2DE2E00C94682D55
:10234000A0E0B0E0E6EAF1E10C944C2D0E94971178
:102350000E948C11E2E00C94682DA0E0B0E0E3EB69
:10236000F1E10C944C2DE2E00C94682DA0E0B0E07B
:10237000ECEBF1E10C944C2D0E94AD11E2E00C94D9
:10238000682DA0E0B0E0E7ECF1E10C944C2DE2E028
:102390000C94682DA0E0B0E0E0EDF1E10C944C2D40
:1023A0000E94C1110E94B611E2E00C94682DA0E0D9
:1023B000B0E0EDEDF1E10C944C2D8CEF94E10E9436
:1023C000F7160E9483110E94A011E2E00C94682D80
:1023D000A0E0B0E0EEEEF1E10C944C2D81E0E2E003
:1023E0000C94682DA0E0B0E0E8EFF1E10C944C2DE6
:1023F00081E0E2E00C94682DA0E0B0E0E2E0F2E1E0
:102400000C944C2D0E94E811E2E00C94682DA0E0A1
:10241000B0E0EDE0F2E10C944C2DE2E00C94682D7C
:10242000A0E0B0E0E6E1F2E10C944C2DE2E00C9487
:10243000682DA0E0B0E0EFE1F2E10C944C2DE2E079
:102440000C94682DA0E0B0E0E8E2F2E10C944C2D91
:102450000E9407120E9410120E941912E2E00C94CE
:10246000682DA0E0B0E0E7E3F2E10C944C2D0E946F
:102470003510811102C00E9423110E9448108093E0
:102480006C020E94701080939002909391020E94BF
:102490003A170E9455100E942C098091C2010E9497
:1024A0006C09E2E00C94682DA0E0B0E0EAE5F2E10E
:1024B0000C944C2D0E943B240E942F1F0E942F162B
:1024C0000E9431120E94D3040E94CA11E2E00C94CF
:1024D000682DA7E0B0E0EFE6F2E10C94422D0E94F7
:1024E000F21181110AC00E943C110E94A81B0E9497
:1024F00000052796ECE00C945E2D0E944D162CE50D
:10250000822E22E0922E740110E0F701C080D1806B
:10251000812F0E9446151F5F143009F44CC0F2E071
:10252000EF0EF11CC816D90681F380916C0281FD73
:102530000E9457150E94FC118F8310E0812F0E948A
:1025400046157C01F401A190B1904F018A159B05BD
:1025500061F1A826BF2400E091E0C92ED12CC5016D
:102560008C219D21892BC9F0FF81F115B1F00983E0
:102570001A830E944C248B839C8321E02D83C70106
:102580008C219D21892B09F420E049815A816B819E
:102590007C818D81922F0E941F050F5FCC0CDD1C6A
:1025A0000C30E9F6F401F292E2921F5F143031F63A
:1025B0000E945F119ACFC816D90609F0B6CF93CF03
:1025C000A1E0B0E0E6EEF2E10C944A2D0E94FB138C
:1025D0008C01923508F050C0903508F0C7C0803E9D
:1025E000910520F58D3C910508F09DC0883A910534
:1025F00070F4853A910508F092C081309105B9F1E7
:102600000497813A910598F100E010E030C0885AB3
:1026100091094B97C8F7085AE02FF0E0EE0FFF1F23
:10262000ED5AFE4F00811181146421C09034C0F432
:10263000103208F0B0C0083E1105C8F0C801915032
:102640009F3110F7812F0E94A5148983802F90E07D
:102650000E94FB134981142F1F71082F192B07C0EB
:1026600090E00E94FB131F70082F192B106AC801FD
:102670002196E4E00C94662D803842E59407C8F575
:10268000803652E5950708F055C0003482E51807FA
:10269000D0F4003292E5190708F047C0802F8695E4
:1026A000869520E2829FC0011124037021E030E072
:1026B000A90102C0440F551F0A95E2F78A01082BB1
:1026C000192B1D68D4CF802F86958695877050E290
:1026D000859FC0011124037021E030E0A90102C0F0
:1026E000440F551F0A95E2F78A01082B192B1C6825
:1026F000BECF803C52E5950740F48F71003A1245F9
:1027000070F5182F04EF106AB2CF805C9245809765
:1027100008F07ACF102F1F7100EF106AA8CF045273
:1027200011091064A4CF1065A2CF0F71102F01EF13
:10273000106A9DCF86958695877050E2859FC0016F
:102740001124037021E030E0A90102C0440F551F9D
:102750000A95E2F78A01082B192B1A6888CF0E9484
:10276000A514182F00E01F71106281CF8F710E9495
:10277000A51453E0000F111F5A95E1F71F70282F81
:1027800030E084FF04C050E1859F90011124022FA6
:10279000132B10696CCF812F8F710E94A514898330
:1027A000802F90E00E94FB134981342F3F71282F26
:1027B000392B8901D9CFA0E0B0E0E1EEF3E10C9430
:1027C0004C2D462F743040F46C3030F4672F0E944B
:1027D0002018E2E00C94682DCD01FBCFA0E0B0E022
:1027E000E4EFF3E10C944C2D0E94DB130E94E01205
:1027F000E2E00C94682DA0E0B0E0E1E0F4E10C949C
:102800004C2D803E910509F44BC0F0F481339105C5
:1028100009F481C058F48932910509F471C08A32F3
:10282000910509F47FC0E2E00C94682D893391058D
:1028300059F18238910541F185339105A1F7209135
:10284000900225FFF0CF29C0843E910509F446C0CF
:1028500048F4823E910591F1833E9105A1F181EE0C
:1028600090E0E1CF863E910509F443C0873E910593
:10287000D1F62091900223FD62C03091910231FF88
:102880002AC084EE90E0CFCF20919002237009F00F
:1028900053C02091910223FFC6CF89E290E0C3CFBD
:1028A0002091900220FD34C03091910230FFBBCFC7
:1028B00083EE90E024FFB7CFCD01B5CF20919002F9
:1028C00022FDF6CFB0CF2091900222FD32C0309190
:1028D000910230FD31C024FFA6CFEECF20919102AE
:1028E00021FFA1CF8091900284FDE6CF87EE90E09A
:1028F0009ACF2091900223FF96CF24FDDDCFF6CF13
:102900002091900225FD1EC02091910223FF8BCFC4
:1029100089E390E088CF2091900226FF84CF8AE25D
:1029200090E081CF2091900226FF7DCF81E390E05F
:102930007ACF82EE90E077CF80EE90E074CF86EE93
:1029400090E071CF85E390E06ECFA0E0B0E0EBEADD
:10295000F4E10C944C2D9091900292FF10C041E054
:10296000282F2471243009F040E031E0282F28710D
:10297000283009F030E0431711F02CE0822793FF54
:1029800010C041E0282F2471243109F040E031E0EB
:10299000282F2871283109F030E0431711F02CE07E
:1029A00082273091910230FF10C051E0282F217111
:1029B000213009F050E041E0282F2871283009F03B
:1029C00040E0541711F029E0822731FF10C041E0A8
:1029D000282F2171213109F040E031E0282F2871A2
:1029E000283109F030E0431711F029E0822794FDE7
:1029F000877EE2E00C94682DA0E0B0E0E2E0F5E133
:102A00000C944C2D80E0E2E00C94682DA0E0B0E046
:102A1000ECE0F5E10C944B2D9C01205E324511E079
:102A20002032310538F4FB011581111103C08F717B
:102A30000E94AF03812FE3E00C94672DA0E0B0E08B
:102A4000E4E2F5E10C944C2DE2E00C94682DA0E05A
:102A5000B0E0EDE2F5E10C944C2D0E941E15E2E091
:102A60000C94682DA0E0B0E0E8E3F5E10C944C2D67
:102A7000E2E00C94682DA0E0B0E0E1E4F5E10C9414
:102A80004C2D0E943215E2E00C94682DA0E0B0E0DD
:102A9000ECE4F5E10C944C2DE82FF0E0EE0FFF1F75
:102AA000E656FD4F80819181E2E00C94682DA0E014
:102AB000B0E0EDE5F5E10C944C2DE2E00C94682DCE
:102AC000A0E0B0E0E6E6F5E10C944C2D80EA8A95B2
:102AD000F1F7E2E00C94682DA0E0B0E0E2E7F5E168
:102AE0000C944C2D00C0E2E00C94682DA0E0B0E006
:102AF000ECE7F5E10C944C2D0E946015E2E00C949B
:102B0000682DA0E0B0E0E7E8F5E10C944C2DF894D6
:102B1000E82FE295EF70F0E041A18F7021E030E006
:102B2000B90101C0660F8A95EAF7862F962F909516
:102B3000942391A392A1892B82A37894E2E00C9430
:102B4000682DA0E0B0E0E7EAF5E10C944A2D05E934
:102B500011E0F80181918F018F3F11F00E948115E2
:102B6000F1E009391F07A9F709E811E0F80181919F
:102B70008F018F3F11F00E948115F1E005391F0789
:102B8000A9F7E4E00C94662DA5E0B0E0EAECF5E1ED
:102B90000C94482D8C839D836983062F10E0C80117
:102BA0008B569E4F8A839B83FC0180818F3F09F463
:102BB00050C0F894E82FE295EF70F0E091A18F708B
:102BC00021E001C0220F8A95EAF7892F822B81A389
:102BD00082A12095282322A378940E946C15E9E80D
:102BE000F1E021E030E0E12CF12C41914F3F79F010
:102BF000A42FA295AF70A05EB0E08C9190E04F70D2
:102C000002C0959587954A95E2F780FF26C080E03F
:102C100090E0E82AF92A220F331F81E0E539F8070E
:102C200021F7EA81FB8180818F3F11F00E9481159D
:102C300061E0E114F10409F460E089810E947615F5
:102C4000F801EE0FFF1F8C819D81E80FF91FE082D4
:102C5000F1822596E6E00C94642DC901DACFA0E05C
:102C6000B0E0E5E3F6E10C944C2D0E94A11588E05C
:102C7000EAE9F2E0DF01982F1D929A95E9F7E2E97F
:102C8000F2E0DF011D928A95E9F784E00E948A163E
:102C90000E942715E2E00C94682DAAE0B0E0E3E57D
:102CA000F6E10C944B2DFE01319688E0DF011D9278
:102CB0008A95E9F710E0E987FA87612F89859A8577
:102CC0000E94C4151F5F1430C1F748E050E06985C9
:102CD0007A8582E992E00E94872D21E0892B81F498
:102CE00020E044E06AE972E082E992E00E949316F3
:102CF000182F0E943B15812F2A96E3E00C94672D34
:102D000088E0E985FA85A2E9B2E001900D928A9502
:102D1000E1F7E7CFA0E0B0E0E0E9F6E10C944C2D5C
:102D2000E2E00C94682DA4E0B0E0E9E9F6E10C944F
:102D3000482D89839A836B837C83E42E122F21157F
:102D400071F081E080936F020E944C2480936D02A9
:102D500090936E0280E02496E6E00C94642D00913E
:102D60006F020115B9F380916D0290916E020E947D
:102D7000AD23059778F3F12CEE0CFF1CA7016981B8
:102D80007A818B819C810E94872D892B41F0A7013C
:102D900069817A818B819C810E94942D102F1092E1
:102DA0006F02812FD8CFA0E0B0E0E9EDF6E10C94FE
:102DB0004C2D0E946912E2E00C94682DCDB7DEB76D
:102DC0000E94BF230E94C9260E94D7110E94EB26B1
:102DD0000E9454120E9400270E940D270E94D316C1
:102DE0000E942F270E945C250E942212F5CFA0E0AE
:102DF000B0E0EDEFF6E10C944C2D8093A801909398
:102E0000A901E2E00C94682DA0E0B0E0EAE0F7E16F
:102E10000C944C2D0E942710E2E00C94682DA0E049
:102E2000B0E0E5E1F7E10C944C2D80E00E944615FE
:102E30008170E2E00C94682DA0E0B0E0E2E2F7E1FE
:102E40000C944C2D0E944D162FEF86E791E02150F7
:102E500080409040E1F700C000000E944D160E94A3
:102E60000F17811521F00E9404170E949E24E2E0B2
:102E70000C94682DA0E0B0E0E0E4F7E10C944C2D58
:102E80000E941C17E2E00C94682DA2E0B0E0EBE495
:102E9000F7E10C944A2D89839A83FC01008111810A
:102EA000C8010E949D2D0F5F1F4FE981FA810083A9
:102EB00011832296E4E00C94662DA0E0B0E0E3E6F6
:102EC000F7E10C944C2D86E0E2E00C94682DA0E034
:102ED000B0E0EDE6F7E10C944C2D50E0440F551FA7
:102EE00098E1699F400D511D112490E6899F400D86
:102EF000511D1124CA018896E2E00C94682DA0E0CF
:102F0000B0E0E5E8F7E10C94482D863090F46430A9
:102F100080F44C3070F40E9467178C010E949D2D44
:102F2000E82EC80101960E949D2D9E2DE6E00C948E
:102F3000642DCD01FBCFA2E0B0E0E1EAF7E10C9413
:102F40004A2D29833A83863078F4643068F44C3013
:102F500058F40E9467178C016A810E94BB2D698119
:102F6000C80101960E94BB2D2296E4E00C94662DC8
:102F7000A0E0B0E0EEEBF7E10C94492D00E010E0AA
:102F800012C04F2D612F802F0E9491029C014F2D66
:102F9000612F802F0E949B17F3948CE0F812F1CFE1
:102FA0001F5F143011F0F12CECCF0F5F063039F7B2
:102FB000E5E00C94652DA0E0B0E0E1EEF7E10C94C3
:102FC000462D7C018A016A01C60ED71E0C151D050F
:102FD00019F4E8E00C94622D80E4E81682E0F8062B
:102FE00058F4C70188960E949D2DF80181938F01A6
:102FF000FFEFEF1AFF0AEACF80E0F7CFA0E0B0E0E2
:10300000E4E0F8E10C94462D7C018A016A01C60EC9
:10301000D71E0C151D0519F4E8E00C94622D80E410
:10302000E81682E0F80630F4F8016081C70188965E
:103030000E94BB2D0F5F1F4FFFEFEF1AFF0AE9CF72
:10304000A0E0B0E0E6E2F8E10C944C2D863048F4C4
:10305000643038F44C3028F40E947F17E2E00C947E
:10306000682DCD01FBCFA0E0B0E0E9E3F8E10C94DE
:103070004C2D80E1E2E00C94682DA0E0B0E0E3E4A8
:10308000F8E10C944C2D88E991E0E2E00C94682D75
:10309000A0E0B0E0EEE4F8E10C94462D7C018A015A
:1030A0006A01C60ED71E0C151D0519F4E8E00C9434
:1030B000622D88E9E81681E0F80660F4C7018859B6
:1030C0009D4F0E949D2DF80181938F01FFEFEF1A14
:1030D000FF0AE9CF80E0F7CFA0E0B0E0E2E7F8E157
:1030E0000C94462D7C018A016A01C60ED71E0C1570
:1030F0001D0519F4E8E00C94622D88E9E81681E0DA
:10310000F80638F4F8016081C70188599D4F0E9484
:10311000BB2D0F5F1F4FFFEFEF1AFF0AE8CFA0E0B4
:10312000B0E0E5E9F8E10C944A2D08E612E060E031
:10313000C8010E94BB2D0F5F1F4F011584E01807C7
:10314000B1F7E4E00C94662DA2E0B0E0EAEAF8E121
:103150000C94492DF82E80E1F816A0F48FEF93E03F
:103160000E949D2D81110EC008E612E0F1100EC0E4
:1031700009831A8340E0BE016F5F7F4F85E497E1CA
:103180000E94231D2296E5E00C94652D011584E034
:103190001807C1F3C8010E949D2D811519F00F5F1A
:1031A0001F4FF4CFFA940F5F1F4FE0CFA2E0B0E0C3
:1031B000ECEDF8E10C944C2D69837A8386319C47C1
:1031C00031F50E942C0EE981FA8195819115A9F0C3
:1031D0008A7A91E0811101C090E09093700281158C
:1031E00051F085E30E94EF210E946A0F80E0229651
:1031F000E2E00C94682D89E2F5CF80917002811590
:1032000021F085E30E941022EFCF89E2FBCF81E01D
:10321000EECFA0E0B0E0EFE0F9E10C944A2D8C0194
:10322000FB018581811509F4CFC098013057233205
:10323000310508F0AFC00E94701080939002909307
:103240009102F801E150F047E232F10520F4E35039
:10325000F24D0C942F2D809190028160809390020A
:1032600090C0809191028860809391028AC0809181
:1032700090028260F3CF809190028460EFCF8091C2
:1032800090028860EBCF809191028160EDCF8091B8
:1032900091028260E9CF809190028061DFCF8091BE
:1032A00090028062DBCF809190028064D7CF0E9431
:1032B000A208809190028068D1CF809190028C60AA
:1032C000CDCF809191028360CFCF809190028E7F8D
:1032D000C5CF80919102877FC7CF809190028D7F6B
:1032E000BDCF809190028B7FB9CF80919002877F74
:1032F000B5CF809191028E7FB7CF809191028D7F63
:10330000B3CF809190028F7EA9CF809190028F7D64
:10331000A5CF809190028F7BA1CF0E94A2088091BF
:1033200090028F779BCF80919002837F97CF80917F
:1033300091028C7F99CF90919002892F8B7F92FF81
:103340008460877F92FF886089CF80919102982F57
:10335000909590FB80F990FB81F986CF9091900237
:10336000892F8F7B96FF806479CF0E94A20890916D
:103370009002892F97FB87F9805870CF81E00E94D7
:103380002E1180919002909191020E947D100E94D6
:10339000A20880E0E4E00C94662D80E0F0CF9091EC
:1033A0009002892F8F7E94FF806158CF9091900278
:1033B000892F8E7F90FF816051CF90919102892F4C
:1033C000877F93FF886050CF81E0E4CFA0E0B0E03A
:1033D000ECEEF9E10C944C2D282F35EB2303C001C2
:1033E000112497FF06C080589109892FE2E00C94C0
:1033F000682D80589F4FF9CFA0E0B0E0E2E0FAE1FD
:103400000C944C2D8091770280FF11C060910901CE
:1034100070E0660F771F8FE76038710528F481E050
:103420006115710509F0862FE2E00C94682D81FF8B
:1034300007C06091090184E0689FB0011124EBCFBF
:1034400082FF07C06091090198E0699FB0011124D3
:10345000E2CF909176029115B9F0609108018091C8
:103460000901961728F098E0899FB0011124D3CF65
:10347000899FC001112423E0880F991F2A95E1F745
:1034800070E00E941B2DC7CF68E0CDCFA0E0B0E078
:10349000ECE4FAE10C944C2D8091770280FF0DC092
:1034A0006091050170E0759567957595679581E068
:1034B00061157105F1F0862F1CC081FF06C0609177
:1034C000050170E075956795F2CF6091050182FD69
:1034D0000BC0909175029115B1F06091040180913B
:1034E0000501961748F0682F70E08FE76038710586
:1034F000F0F2E2E00C94682D899FC001112470E085
:103500000E941B2DF2CF61E0D6CFA0E0B0E0EBE847
:10351000FAE10C944C2DE3E3E80FE33150F4F0E0D2
:10352000E15EF14D0C942F2D0E94FC198195809342
:103530007B02E2E00C94682D0E94FC19F8CF0E94F7
:10354000FC19819580937A02F4CF0E94FC19FACF7E
:103550000E94461A80937C02ECCF0E94461A819505
:10356000F9CF0E94461A819580937D02E2CF0E9496
:10357000461AFACF815D990B21E001C0220F8A958E
:10358000EAF780917902822B80937902D2CF8091E1
:103590007702816080937702CCCF8091770282603E
:1035A000F9CF809177028460F5CFA0E0B0E0EBED39
:1035B000FAE10C944C2D40917A028D3C59F48091A3
:1035C0007B0287FF0DC010927B02411559F41092C7
:1035D000760208C08E3C89F480917B0218169CF319
:1035E000411589F080917C0290917D02892B11F424
:1035F00010927502E2E00C94682D8F3C41F447FF75
:10360000EFCF10927A0280917B028115DFCF803D4F
:1036100019F41416B4F3E4CF90917C02893D29F497
:103620001916F4F610927C02DBCF8A3D19F497FF4D
:10363000D7CFF8CF90917D028B3D29F497FFD0CF63
:1036400010927D02CDCF8C3D19F41916CCF3C8CF62
:103650009FE2980F983088F4815D990B21E030E06B
:10366000B90101C0660F8A95EAF7862F809590917F
:103670007902892380937902B3CF8D3D31F4809113
:1036800077028E7F80937702ABCF8E3D21F48091BD
:1036900077028D7FF7CF8F3D09F0A2CF809177021F
:1036A0008B7FF0CFA0E0B0E0E8E5FBE10C944C2D7F
:1036B0000E944C249C0190917A0280917B02982B6D
:1036C00021F0209373023093740290917C028091D8
:1036D0007D02982B21F0209371023093720288E7CB
:1036E00092E00E94B720E2E00C94682DA0E0B0E0E8
:1036F000ECE7FBE10C944C2D86E0E8E7F2E0DF011B
:103700001D928A95E9F71092760210927502109236
:103710007702E2E00C94682DA0E0B0E0E2E9FBE182
:103720000C944C2DFC018281811110C08381811188
:103730000DC0848181110AC091E08581811101C091
:1037400090E0892F8170E2E00C94682D81E0FACF3F
:10375000A8E0B0E0EEEAFBE10C944B2D86E0E8E750
:10376000F2E09E012F5F3F4FD90101900D928A95A3
:10377000E1F710927A0210927B0210927C02109272
:103780007D028B819C81892B2F833887811589F05D
:1037900080917302909174020E94AD23AC019091CC
:1037A00076029115C1F180910A018417150608F47B
:1037B0003FC08D819E81892B91F080917102909103
:1037C00072020E94AD23AC0190917502911509F42B
:1037D00061C0809106018417150608F469C06F81E5
:1037E000788588E792E00E945322811105C088E71E
:1037F00092E00E948C1B81110E94521B86E0EF8197
:10380000F885A8E7B2E001900D928A95E1F7289635
:10381000E3E00C94672D20910B018AE0289F900132
:1038200011242417350728F69F5F9093760202C073
:103830009F3FD1F71B81111559F00E94FC1991E0AF
:1038400011160CF09FEF899F802D112480937A022E
:103850001C81111559F00E94FC1991E011160CF011
:103860009FEF899F802D112480937B0280917A02A3
:10387000811509F49ECF10917B02111509F499CF9F
:103880000E94E61980937A02812F0E94E6198093A4
:103890007B028FCF209107018AE0289F900111249D
:1038A0002417350708F09BCF9F5F9093750202C0E5
:1038B0009F3FD1F71D81111559F00E94461A91E0E2
:1038C00011160CF09FEF899F802D112480937C02AC
:1038D0001E81111559F00E94461A91E011160CF044
:1038E0009FEF899F802D112480937D0280917C021F
:1038F000811509F474CF10917D02111509F46FCF71
:103900000E94E61980937C02812F0E94E619809321
:103910007D0265CFA1E0B0E0E0E9FCE10C94442D2C
:10392000E82FF0E0E45DFD4F94919983282F2695D0
:103930002695269530E0F901E453FD4FC490877039
:10394000D12C082E02C0D594C7940A94E2F7F9014D
:10395000E454FD4FA490B12C082E02C0B594A79456
:103960000A94E2F7F901E455FD4F049110E002C01A
:10397000159507958A95E2F7E62EF12CC0FC25C037
:10398000A0FE06C086EE0E947205C701009759F599
:10399000B70189810E94FB05C701009761F5A0FC72
:1039A00032C0C0FE06C081EE0E94C105C70100976B
:1039B000C1F500FF06C08CE20E941806E114F10474
:1039C000C1F52196EAE00C94602D81EE0E9472050B
:1039D000C7010097A9F2EFE9FFE03197F1F700C0C6
:1039E00000000197F6CFEFE9FFE03197F1F700C053
:1039F00000000197CBCFEFE9FFE03197F1F700C06E
:103A000000000197CACF86EE0E94C105C70100974A
:103A100041F2EFE9FFE03197F1F700C000000197B4
:103A2000F6CFEFE9FFE03197F1F700C00000019712
:103A3000BECF8FE99FE00197F1F700C0000091E051
:103A4000E91AF108BBCFA1E0B0E0E9E2FDE10C9496
:103A5000442D7C016B014983C601F7010995813032
:103A6000A8F009F059C0C601F7010995182F813057
:103A700089F4C601F70109950E941806E9818E2F85
:103A800090E0009709F040C01111E6CF2196EAE0DE
:103A90000C94602D823031F4C601F70109950E9423
:103AA0007205ECCF833031F4C601F70109950E940D
:103AB000C105E4CF843011F7C601F7010995182F2D
:103AC000A12CB12C0AE0212F2053330B2A303105D1
:103AD00068F0A114B10491F28FE99FE00197F1F72A
:103AE00000C0000091E0A91AB108F3CF0A9DC001FF
:103AF0000B9D900D1124810F911DC0975C01C60193
:103B0000F7010995182FDFCFEFE9FFE03197F1F7C3
:103B100000C000000197B5CF69810E948A1C9CCF2C
:103B2000A1E0B0E0E6E9FDE10C94492D142FF22E5E
:103B30000983FC0185818115C9F0409380020E94B0
:103B40004C2480937E0290937F0280E2810F883024
:103B500048F481E011FD84E010FD880F12FD82958C
:103B60000E9428062196E5E00C94652D00918002C4
:103B7000041334C080917E0290917F020E94AD2395
:103B8000883C910558F510E21F0D0F15C1F080E239
:103B9000800F883048F481E001FD84E000FD880F4B
:103BA00002FD82950E943706183048F481E0F1FC4E
:103BB00084E0F0FC880FF2FC82950E94280689813F
:103BC0000E94180681E0F1FC84E0F0FC880FF2FC12
:103BD0008295183038F60E943706C4CF80E2810FF4
:103BE000883008F0BFCF81E011FD84E010FD880F20
:103BF00012FD8295F0CF0F93CF93DF93CDB7DEB751
:103C0000FC01CB01E851FC47E730F105D8F5EE5C4B
:103C1000F14D0C942F2D06E221EE41EE6AE17CE796
:103C20000E94901D80E0DF91CF910F9120E040E055
:103C300060E070E090E0E0E0F0E0089507E225EE5B
:103C400045EE6BE17CE7ECCF06E221EE40EE68E169
:103C50007CE7E6CF07E225EE44EE69E17CE7E0CFC2
:103C600006E221EE42EE6CE17CE7DACF07E225EED8
:103C700046EE6DE17CE7D4CF08E221E045EE6EE14F
:103C80007CE7CECFFB01858181111092800281E01B
:103C9000CACFA2E0B0E0EFE4FEE10C944C2D8737F0
:103CA0002CE7920741F088379C4701F181E022968A
:103CB000E2E00C94682DFB018581811591F00E9452
:103CC000801E0E94A1090E94961E89830E948B1E5D
:103CD0008A830E94801E49816A810E942D0B80E0A8
:103CE000E6CF0E94801E0E94B409EDCFFB018581C2
:103CF000811519F00E948B1EE4CF0E948B1EF3CF1A
:103D0000A0E0B0E0E6E8FEE10C944C2D80910E01BD
:103D1000E2E00C94682DA0E0B0E0E1E9FEE10C9453
:103D20004C2D80910D01E2E00C94682DA0E0B0E0F4
:103D3000ECE9FEE10C944C2D80910C01E2E00C9436
:103D4000682DA0E0B0E0E7EAFEE10C944C2D84E29F
:103D500090E00E949D2D863269F485E290E00E94F9
:103D60009D2D823039F486E290E00E949D2D91E0F5
:103D7000893109F090E0892F8170E2E00C94682D80
:103D8000A0E0B0E0E6ECFEE10C944B2D182F66E2CB
:103D9000811101C06FEF84E290E00E94BB2D62E0D0
:103DA000111101C06FEF85E290E00E94BB2D69E127
:103DB000111101C06FEF86E290E00E94BB2DE3E09D
:103DC0000C94672DA0E0B0E0E8EEFEE10C944C2DE1
:103DD000E2E00C94682DA0E0B0E0E1EFFEE10C948D
:103DE0004C2D87E290E00E949D2D682F70E080E0CE
:103DF00090E0E2E00C94682DA0E0B0E0E2E0FFE1AA
:103E00000C944C2DE2E00C94682DA1E0B0E0EBE0C6
:103E1000FFE10C944C2D69830E94FC1E698187E2AE
:103E200090E00E94BB2D2196E2E00C94682DA0E06A
:103E3000B0E0EDE1FFE10C944C2D80E00E94C01E4B
:103E400080E090E0BC010E94051F0E94B8170E940C
:103E50008F1881E00E94C01EE2E00C94682DA0E063
:103E6000B0E0E5E3FFE10C944C2D0E94E21E0E94BD
:103E7000EB1E0E94FC1E0E94A11E811102C00E9426
:103E8000171FE2E00C94682DA0E0B0E0EAE4FFE147
:103E90000C944C2DE2E00C94682DA0E0B0E0E3E53A
:103EA000FFE10C944C2D9C01FB018581811561F093
:103EB000A90157574038510520F4822F0E94A418B9
:103EC00080E0E2E00C94682D81E0FBCFA0E0B0E060
:103ED000ECE6FFE10C944C2D2FEFFC012083E2E097
:103EE0000C94682DA0E0B0E0E8E7FFE10C944C2DC5
:103EF0000E94661FE2E00C94682DA0E0B0E0E3E8C9
:103F0000FFE10C944C2D80E0E2E00C94682DA1E0E0
:103F1000B0E0EDE8FFE10C94462D8C0169830E942E
:103F20007D1F811112C0D801EC91E150E331D0F432
:103F3000F0E0E75CF14D0C942F2DF80111828CE03C
:103F400082836981C8010E944B252196E8E00C9488
:103F5000622D11968C91833029F140F4813079F0F3
:103F60008230B9F08FEFF8018083EBCF8430D1F746
:103F7000D80112961D921D921D921C92E2CF0E94B2
:103F800060240E94352DF8016283738384839583B6
:103F9000D8CF0E94EB1ED80112961D921D921D9241
:103FA0006C93CFCFF801E280F12C6801E4E0EE16CB
:103FB000F1043CF6F2E0CF0ED11C8E2D0E94461586
:103FC000D60111969D938C93BFEFEB1AFB0AEECFAF
:103FD00011968C91823041F0853021F6D8011296ED
:103FE0008C910E94441FADCFF8016281738184815E
:103FF00095810E94352D0E94051FA3CFF8014381B2
:10400000628181810E947F17982789279827D8018C
:1040100014968D939D9395CFF80124813581322795
:10402000232732274381628181810E949B1789CF98
:104030000E94B81786CF6981C8010E94721F81CF84
:104040000E943318D80111968C937BCF0E943D18A3
:10405000982789279827F8018183928372CF139636
:104060006C9170E09E918E91982789279827A801DE
:104070004C5F5F4F0E94481864CFF801638170E085
:1040800081819281982789279827A8014C5F5F4FEB
:104090000E946C1856CF0E948F1853CF0E945D1754
:1040A000D1CFF801638170E08181928198278927BF
:1040B0009827A8014C5F5F4F0E94DB1742CF1396F1
:1040C0006C9170E09E918E91982789279827A8017E
:1040D0004C5F5F4F0E94FE1734CFA0E0B0E0E3E7F3
:1040E000F0E20C944C2D8093850290938602E2E0DE
:1040F0000C94682DA0E0B0E0E0E8F0E20C944C2DC8
:10410000E0918502F091860280E0309721F00190E5
:10411000F081E02D0995E2E00C94682DA0E0B0E07C
:10412000E4E9F0E20C944C2DE0918502F0918602D6
:10413000309721F00280F381E02D0995E2E00C94A4
:10414000682DA0E0B0E0E7EAF0E20C944C2DE0919D
:104150008502F0918602309739F026E0DC012C933D
:104160000480F581E02D0995E2E00C94682DA0E033
:10417000B0E0EDEBF0E20C944C2DE0918502F09173
:104180008602309739F022E0DC012C930680F7811B
:10419000E02D0995E2E00C94682DA3E0B0E0E3ED9A
:1041A000F0E20C944C2D2091830230918402281768
:1041B0003907A1F08093830290938402E0918502F5
:1041C000F0918602309751F023E029838A839B8304
:1041D0000084F185E02DCE01019609952396E2E059
:1041E0000C94682DA3E0B0E0E8EFF0E20C944C2DC5
:1041F000209181023091820228173907A1F0809323
:10420000810290938202E0918502F09186023097BC
:1042100051F024E029838A839B830084F185E02D7B
:10422000CE01019609952396E2E00C94682DA0E05A
:10423000B0E0EDE1F1E20C944A2D00910201109101
:1042400003010E940D23813021F48091900287FDAB
:1042500011C098012E5F3F4F96E080E09150F90128
:1042600040812F5F3F4F41118F5F9111F7CFE4E005
:104270000C94662D20910001309101012E5F3F4F7B
:104280009EE1EBCFA0E0B0E0E8E4F1E20C944B2D2E
:10429000182F811102C080E030C00E940D238130B0
:1042A00021F48091900287FD0FC0809102019091CE
:1042B0000301FC01329608962081211709F13196FD
:1042C000E817F907C9F7E7CF812F86958695869578
:1042D000103F08F7E0910001F0910101E80FF11D96
:1042E000228130E0177081E0012E01C0880F0A940E
:1042F000EAF7282381E0232B71F2E3E00C94672D89
:1043000081E0FBCFA0E0B0E0E8E8F1E20C944C2DB6
:104310009C01FC01329680E09FEF4081461789F0B6
:1043200031969F3F19F4411101C0982F8F5F86305D
:10433000A1F79F3F31F0290F311D97FD3A95F90103
:104340006283E2E00C94682DA0E0B0E0EAEAF1E2DA
:104350000C944C2DFC01329608962191261302C034
:10436000DF011E92E817F907C1F7E2E00C94682D0F
:10437000A0E0B0E0EEEBF1E20C944C2D262F269558
:1043800026952695603F60F4FC01E20FF11D6770F1
:1043900021E001C0220F6A95EAF78281822B828395
:1043A000E2E00C94682DA0E0B0E0E9EDF1E20C94BD
:1043B0004C2D262F269526952695603F68F4FC0106
:1043C000E20FF11D9DEF61FD97EF60FF959562FD96
:1043D0009295828189238283E2E00C94682DA1E08A
:1043E000B0E0E5EFF1E20C944C2D89830E940D239F
:1043F0006981813071F48091900287FF0AC08091B9
:104400000001909101010E94B8212196E2E00C94F4
:10441000682D80910201909103010E948221F5CFC5
:10442000A1E0B0E0E6E1F2E20C944C2D89830E9419
:104430000D236981813071F48091900287FF0AC059
:1044400080910001909101010E94D3212196E2E028
:104450000C94682D80910201909103010E94A42187
:10446000F5CFA0E0B0E0E7E3F2E20C944C2D0E941F
:104470000D23813089F48091900287FF0DC0E09177
:104480000001F091010132968EE1DF011D928A95C3
:10449000E9F7E2E00C94682DE0910201F09103014C
:1044A000329686E0F2CFA0E0B0E0E9E5F2E20C94CB
:1044B0004C2DDC01FB0111969C9111978181981381
:1044C00022C012968C911297811519F0928189134E
:1044D0001AC013968C911397811519F09381891343
:1044E00012C015968C911597811519F09581891335
:1044F0000AC014969C91911521F081E02481291322
:1045000003C080E001C081E08170E2E00C94682D7E
:10451000A0E0B0E0EEE8F2E20C944C2DE2E00C9466
:10452000682DA0E0B0E0E7E9F2E20C944C2D0E9487
:104530008822E2E00C94682DA0E0B0E0E2EAF2E22A
:104540000C944C2D8F5F8093120160910F0170913C
:10455000100180911101909112010E949122E2E0DC
:104560000C94682DA0E0B0E0E8EBF2E20C944C2D46
:1045700083E08093120160910F017091100180918E
:104580001101909112010E949122E2E00C94682D99
:10459000A0E0B0E0EEECF2E20C944C2D0E949C22E4
:1045A000E2E00C94682DA0E0B0E0E9EDF2E20C94BA
:1045B0004C2D81E08093120160910F0170911001E8
:1045C00080911101909112010E949122E2E00C94DD
:1045D000682DA0E0B0E0EFEEF2E20C944C2D0E94CA
:1045E000D322E2E00C94682DA0E0B0E0EAEFF2E222
:1045F0000C944C2D91E0811101C090E09093110139
:1046000060910F0170911001809111019091120140
:104610000E949122E2E00C94682DA0E0B0E0E3E17A
:10462000F3E20C944C2D80911101E2E00C94682D82
:10463000A0E0B0E0EEE1F3E20C944C2D8093100189
:1046400060910F0170911001809111019091120100
:104650000E949122E2E00C94682DA0E0B0E0E3E338
:10466000F3E20C944C2D80911001E2E00C94682D43
:10467000A0E0B0E0EEE3F3E20C944C2D80930F0148
:1046800060910F01709110018091110190911201C0
:104690000E949122E2E00C94682DA0E0B0E0E3E5F6
:1046A000F3E20C944C2D80910F01E2E00C94682D04
:1046B000A0E0B0E0EEE5F3E20C944C2DE2E00C94C7
:1046C000682DA0E0B0E0E7E6F3E20C944C2DE2E0C8
:1046D0000C94682DA0E0B0E0E0E7F3E20C944C2DE0
:1046E0000E946123E2E00C94682DA0E0B0E0EBE7CB
:1046F000F3E20C944C2DE2E00C94682DA0E0B0E0C5
:10470000E4E8F3E20C944C2DE2E00C94682DA0E078
:10471000B0E0EDE8F3E20C944C2D0E945823E2E067
:104720000C94682DA0E0B0E0E8E9F3E20C944B2D86
:104730000E9475230E944D160E947E2310E0812F57
:104740000E944615892B39F41F5F1430C1F780E0B1
:10475000E3E00C94672D81E0FBCFA2E0B0E0E3EB57
:10476000F3E20C944C2D89839A830E944C24298176
:104770003A81821B930B2296E2E00C94682DA0E014
:10478000B0E0E5ECF3E20C944C2D85B7806885BF72
:1047900085B7806885BFE2E00C94682D1F921FB634
:1047A0001F9211248F939F93AF93BF93CF93DF9367
:1047B000CDB7DEB780918702811113C08091A2022C
:1047C0009091A302A091A402B091A5024196A11DCF
:1047D000B11D8093A2029093A302A093A402B09370
:1047E000A502DF91CF91BF91AF919F918F911F90C3
:1047F0001FBE1F901895A0E0B0E0E1E0F4E20C9439
:104800004C2D8091AA02843031F10E948E041092C6
:10481000870288E190E020E40FB6F894A895809391
:1048200060000FBE2093600083B7817F846083BFE8
:1048300083B7816083BF7894889583B78E7F83BF69
:104840000FB6F894A895809160008861809360000D
:10485000109260000FBEE2E00C94682DA0E0B0E082
:10486000E4E3F4E20C944C2D0E94A2080E949D0403
:10487000E2E00C94682DA0E0B0E0E1E4F4E20C94F6
:104880004C2D82E084BD93E095BD9AEF97BD809357
:104890006E00E2E00C94682DA0E0B0E0E2E5F4E206
:1048A0000C944C2D2FB7F8948091A2029091A30202
:1048B000A091A402B091A5022FBFE2E00C94682D54
:1048C000A0E0B0E0E6E6F4E20C944C2D2FB7F894AB
:1048D0006091A2027091A3028091A4029091A5021E
:1048E0002FBFE2E00C94682D78941F921FB61F92A0
:1048F00011248F939F93AF93BF93CF93DF93CDB743
:10490000DEB78091A2029091A302A091A402B0917F
:10491000A5020196A11DB11D8093A2029093A3024E
:10492000A093A402B093A502DF91CF91BF91AF9164
:104930009F918F911F901FBE1F901895A0E0B0E02F
:10494000E4EAF4E20C944C2D81E08093E00080E2F4
:104950008093D8001092C9008FE19EE40197F1F78F
:1049600000C00000A7E0B0EBCD018093B3029093AC
:10497000B402A093B502B093B60288E19CE00FB6F2
:10498000F894A895809360000FBE90936000FFCFCD
:10499000A0E0B0E0EEECF4E20C944C2D88E19CE059
:1049A0000FB6F894A895809360000FBE90936000B6
:1049B000FFCFA0E0B0E0EFEDF4E20C944C2D9B01B2
:1049C000BA019091AA029430E1F48F708093E900CB
:1049D0009FEF8091E80085FD06C085ED8A95F1F78F
:1049E00000009150B1F78091E80085FF0AC040E0D7
:1049F00050E0C9010E94C4278091E8008E7780931F
:104A0000E800E2E00C94682DA0E0B0E0EAE0F5E216
:104A10000C944C2D43E050E0BC0184E00E94D9246A
:104A2000E2E00C94682DA0E0B0E0E9E1F5E20C943E
:104A30004C2D46E050E0BC0184E00E94D924E2E025
:104A40000C94682DA0E0B0E0E8E2F5E20C944C2D67
:104A500040E250E0BC0184E00E94D924E2E00C94E2
:104A6000682DA0E0B0E0E7E3F5E20C944A2D8C015C
:104A70000E940D2348E050E0B80181E00E94D92453
:104A800088E0F801A8E8B2E001900D928A95E1F77C
:104A9000E4E00C94662DA0E0B0E0E1E5F5E20C94D2
:104AA0004C2D603231F440E250E0BC0182E00E94C3
:104AB000D924E2E00C94682DA0E2B0E0E2E6F5E251
:104AC0000C944C2D8091AA02843001F583E08093F0
:104AD000E9008091E80082FF19C08091E80090E031
:104AE00085FF08C040E050E0BD01CE0101960E9464
:104AF000222891E08091E8008B778093E80091155F
:104B000029F060E2CE0101960E94871FA096E2E0A4
:104B10000C94682DA0E0B0E0E0E9F5E20C944C2D97
:104B20008091A902811109C00E94E9290E94502A9E
:104B30008091E20084608093E200E2E00C94682DB2
:104B4000A0E0B0E0E6EAF5E20C944C2D1092A90248
:104B5000E2E00C94682DA0E0B0E0E1EBF5E20C940B
:104B60004C2D0E94D32281E00E94F422E2E00C94BA
:104B7000682DA0E0B0E0EFEBF5E20C944C2D6091D5
:104B8000A60281E0611101C080E00E94B222E2E051
:104B90000C94682DA0E0B0E0E0EDF5E20C944C2D13
:104BA0009091AA0281E0943009F080E06091A60221
:104BB0000E94C822E2E00C94682DA0E0B0E0E3EE91
:104BC000F5E20C944C2D42E061EC81E00E944D290D
:104BD00042E261EC84E00E944D2942E261EC82E015
:104BE0000E944D2942E260EC83E00E944D299091A1
:104BF000AA0281E0943009F080E06091A6020E9450
:104C00009C22E2E00C94682DA0E0B0E0EAE0F6E23D
:104C10000C944C2D8091AC02893009F447C058F4B3
:104C2000823009F4A5C0833009F474C0813001F1E9
:104C3000E2E00C94682D8A3009F489C08B30C1F70A
:104C40008091AB028132A1F78091AF029091B002C6
:104C5000892B71F78091E800877F8093E8000E949C
:104C600089298091AD020E94F4220E94A208E0CF1F
:104C70008091AB02813AE1F68091E800877F8093D2
:104C8000E8008091AF029091B002892B59F060E06A
:104C9000CD0170E00E9480288091E8008B7780939E
:104CA000E800C6CF68E088E892E0F3CF8091AB02DD
:104CB000813209F0BDCF8091AF029091B0028D7F1B
:104CC000892B09F0B5CF8091E800877F8093E800B9
:104CD0008091E80082FF19C02091F3008091F200DA
:104CE000922F029731F48091F100813011F08630DB
:104CF00021F48091F1000E9418238091E8008B77C5
:104D00008093E8000E94892993CF8091AA028111A3
:104D1000DFCF8ECF8091AB02813A09F089CF8091AD
:104D2000AF029091B002892B09F082CF8091E80008
:104D3000877F8093E8008091E80080FFFCCF0E948D
:104D40000D238093F1008091E8008E77D9CF809178
:104D5000AB02813209F06CCF8091E800877F8093AD
:104D6000E8000E9489298091AE020E94382360CF1A
:104D70008091AB02813A09F05BCF8091E800877F98
:104D80008093E8008091E80080FFFCCF0E944D23D3
:104D9000D8CFA0E0B0E0EFECF6E20C944C2D84B755
:104DA000877F84BF0FB6F894A895809160008861D2
:104DB00080936000109260000FBE80E890E00FB614
:104DC000F89480936100909361000FBE0E94E922E5
:104DD000E2E00C94682DA0E0B0E0E1EFF6E20C9484
:104DE0004C2D0E94E9290E94502AE2EEF0E08081D9
:104DF0008460808378940E94FB2CE2E00C94682D00
:104E0000A0E0B0E0E6E0F7E20C944C2D83E191E005
:104E10000E946D20E2E00C94682DA0E0B0E0E3E198
:104E2000F7E20C944C2D8091AA02853031F48091E8
:104E3000AA02853029F00E942E24E2E00C94682D0D
:104E40000E94FB230E949223811589F38091A8027E
:104E5000811569F30E94A6270E94A208E8CFA0E06E
:104E6000B0E0E5E3F7E20C944C2DE2E00C94682D01
:104E7000A0E0B0E0EEE3F7E20C944C2D9A014091F3
:104E8000B1025091B2020E944827E2E00C94682DD2
:104E9000A0E0B0E0EEE4F7E20C944C2D492F50E096
:104EA00043305105D9F088F44130510509F449C027
:104EB0004230510581F48BE590E046E153E0F90181
:104EC00040835183E2E00C94682D41325105E1F0BA
:104ED0004232510531F1CD0140E0F1CF482F50E091
:104EE000813061F04230510561F0E2E1F3E04115BB
:104EF000510589F7849190E0AF01E1CFECEFF2E04A
:104F0000F9CFECEDF2E0F6CF6330710520F7FB014D
:104F1000EE0FFF1FEE55FE4F4081518189E090E07A
:104F2000CECF63307105B8F6FB01EE0FFF1FE456DC
:104F3000FE4F4081518167567E4FFB01808190E09A
:104F4000BECF82E190E041E753E0B9CFA0E0B0E00E
:104F5000ECEAF7E20C944C2D80E189BD82E189BD39
:104F600009B400FEFDCF8091D8008F7D8093D800DA
:104F70008091E00082608093E0008091E00081FDFC
:104F8000FCCFE2E00C94682D8F929F92AF92BF927B
:104F9000DF92EF92FF920F931F93CF93DF93CDB7E2
:104FA000DEB75C018B017A010E94B029D82E8111F5
:104FB00024C0E114F10439F0F70180819181081BCC
:104FC000190BA80EB91E812C912C01151105A9F001
:104FD0008091E80085FD2BC08091E8008E7780935A
:104FE000E800E114F104E9F0F70180819181880D76
:104FF000991D8083918385E0D82E8D2DDF91CF91EF
:105000001F910F91FF90EF90DF90BF90AF909F9016
:105010008F9040E050E060E070E090E0E0E0F0E091
:1050200008950E94B029811599F2D82EE6CFF50196
:1050300081915F018093F10001501109FFEF8F1AF8
:105040009F0AC3CF8F929F92AF92BF92DF92EF924F
:10505000FF920F931F93CF93DF93CDB7DEB75C0121
:105060008B017A010E94B029D82E811124C0E1144D
:10507000F10439F0F70180819181081B190BA80E0A
:10508000B91E812C912C01151105A9F08091E80021
:1050900085FD2BC08091E8008B778093E800E114B8
:1050A000F104E9F0F70180819181880D991D8083D9
:1050B000918385E0D82E8D2DDF91CF911F910F9197
:1050C000FF90EF90DF90BF90AF909F908F9040E067
:1050D00050E060E070E090E0E0E0F0E008950E94D1
:1050E000B029811599F2D82EE6CF8091F100F50113
:1050F00081935F0101501109FFEF8F1A9F0AC3CFFF
:10510000A0E0B0E0E6E8F8E20C944C2DFC01209120
:10511000B1023091B2022617370720F061157105F0
:1051200079F09B0190E02115310581F491110EC0B9
:105130008091E80082FF3AC080E0E2E00C94682DA4
:105140009091E8009E779093E800EBCF8091AA02BF
:105150008115C1F18530C1F18091E80083FD30C037
:105160008091E80082FDE4CF8091E80080FFDBCFF2
:105170008091F3004091F200582F2115310519F06C
:105180004830510558F091E04830510509F090E061
:105190004091E8004E774093E800C5CF819180931D
:1051A000F100215031094F5F5F4FE7CF8091AA0294
:1051B000811541F0853041F08091E80083FFB8CF40
:1051C00081E0BBCF82E0B9CF83E0B7CFA0E0B0E011
:1051D000ECEEF8E20C944C2DFC012091B1023091E0
:1051E000B2022617370720F06115710579F09B018F
:1051F00090E02115310581F491110EC08091E800F5
:1052000082FF3BC080E0E2E00C94682D8091E800D2
:105210008E778093E800EBCF8091AA028115C9F1C7
:105220008530C9F18091E80083FD31C08091E800AC
:1052300082FDE4CF8091E80080FFDBCF8091F30016
:105240004091F200582F2115310519F048305105D1
:1052500058F091E04830510509F090E08091E80065
:105260008E778093E800C5CF84918093F1003196CA
:10527000215031094F5F5F4FE6CF8091AA0281151F
:1052800041F0853041F08091E80083FFB7CF81E0A5
:10529000BACF82E0B8CF83E0B6CFA0E0B0E0E3E5DC
:1052A000F9E20C944C2D982F973038F08F70809342
:1052B000E90081E0E2E00C94682D9093E900242F4E
:1052C000762F50E0981731F07091EC002091ED00AE
:1052D0005091F00021FD02C09F5FE6CF3091EB00BE
:1052E0003E7F3093EB003091ED003D7F3093ED0039
:1052F0003091EB0031603093EB007093EC00209321
:10530000ED005093F0002091EE0027FDE5CF80E006
:10531000D1CFA0E0B0E0EFE8F9E20C944C2D809101
:10532000AB0287FF15C08091E80082FF06C0809124
:10533000E8008B778093E80004C08091AA02811175
:10534000F2CFE2E00C94682D8091AA028115C9F396
:105350008091E80080FFF8CF8091E8008E77EACF57
:10536000A0E0B0E0E6EBF9E20C944C2D2091E400D3
:105370003091E50095E6A9012091EC00822F817023
:1053800020FF06C08091E80080FF06C080E018C0C2
:105390002091E80022FD14C08091AA02811599F0A5
:1053A000853099F08091EB0085FD11C02091E400DB
:1053B0003091E50042175307F9F29150E1F684E08D
:1053C000E2E00C94682D82E0FBCF83E0F9CF81E02E
:1053D000F7CFA0E0B0E0EFEEF9E20C944C2D0E9484
:1053E000692A0E94792AE0EEF0E080818160808362
:1053F000E8ED80818F77808319BCA7EDB0E08C91B8
:105400008E7F8C9380818F7E80831092A902E2E050
:105410000C94682DA0E0B0E0E0E1FAE20C94482D95
:105420000E94692A0E94792A08ED10E0F801808123
:105430008F77808380818068808380818F7D808367
:1054400019BC1092AA021092A6021092A802109201
:10545000A70280EEE82EF12CE0EE80818B7F808326
:10546000E8ED80818160808342E060E080E00E941E
:105470004D29E1EEF0E080818E7F8083E2EE808135
:1054800081608083808188608083E0EE80818E7F70
:105490008083E8ED808180618083E6E00C94642D58
:1054A000A0E0B0E0E6E5FAE20C944C2DE8EDF0E087
:1054B00080818F7E8083E7ED80818160808384E0BE
:1054C00082BF81E08093A9020E940A2AE2E00C9444
:1054D000682DA0E0B0E0EFE6FAE20C944C2DE8ED88
:1054E000F0E080818E7F80831092E200E2E00C94F5
:1054F000682DA0E0B0E0EFE7FAE20C944C2D10929A
:10550000DA001092E100E2E00C94682D1F920F92F5
:105510000FB60F9211242F933F934F935F936F9386
:105520007F938F939F93AF93BF93EF93FF93CF930B
:10553000DF93CDB7DEB78091E10082FF0BC0809191
:10554000E20082FF07C08091E1008B7F8093E10041
:105550000E94F22C8091DA0080FF19C08091D8005F
:1055600080FF15C08091DA008E7F8093DA008091F1
:10557000D90080FF96C080E189BD82E189BD09B470
:1055800000FEFDCF81E08093AA020E948A258091CF
:10559000E10080FF19C08091E20080FF15C080917A
:1055A000E2008E7F8093E2008091E2008061809330
:1055B000E2008091D80080628093D80019BC85E019
:1055C0008093AA020E94B9258091E10084FF29C03E
:1055D0008091E20084FF25C080E189BD82E189BD20
:1055E00009B400FEFDCF8091D8008F7D8093D80054
:1055F0008091E1008F7E8093E1008091E2008F7EB8
:105600008093E2008091E20081608093E2008091CB
:10561000A602811509F44BC084E08093AA020E947F
:10562000CA258091E10083FF29C08091E20083FFB9
:1056300025C08091E100877F8093E10082E0809324
:10564000AA021092A6028091E1008E7F8093E10071
:105650008091E2008E7F8093E2008091E200806181
:105660008093E20042E060E080E00E944D2980915A
:10567000F00088608093F0000E94AB25DF91CF910D
:10568000FF91EF91BF91AF919F918F917F916F911A
:105690005F914F913F912F910F900FBE0F901F90F0
:1056A000189519BC1092AA020E94A02570CF809173
:1056B000E30087FF02C083E0B0CF81E0AECF1F924E
:1056C0000F920FB60F921124CF92DF92EF92FF92BA
:1056D0001F932F933F934F935F936F937F938F937A
:1056E0009F93AF93BF93EF93FF93CF93DF93CDB788
:1056F000DEB789EEE82EF12CF70180811091EC00E5
:105700008F7010FB112717F9182B1082E0EF8081A2
:10571000877F808378940E94AE2BF7011082E0EFA0
:105720008081886080831F70E9EE1083DF91CF91C4
:10573000FF91EF91BF91AF919F918F917F916F9169
:105740005F914F913F912F911F91FF90EF90DF90CC
:10575000CF900F900FBE0F901F901895AAE2B0E067
:10576000E4EBFBE20C944B2D8BEA92E0FC010196FA
:105770002091F100208322E0833B9207B9F70E9439
:1057800004268091E80083FF38C08091AB0290919D
:10579000AC029A3090F5E92FF0E0E45BF14D0C9407
:1057A0002F2D803889F0823841F58091AF028F70BB
:1057B000873018F58093E9008091EB0085FB8827FE
:1057C00080F91092E90006C08091A802880F90919C
:1057D000A702892B9091E800977F9093E80080932F
:1057E000F1001092F1008091E8008E7723C08111C2
:1057F00016C08091AD02813011F18091E80083FFE5
:105800000AC08091E800877F8093E8008091EB00D8
:1058100080628093EB00AA96E3E00C94672D8230BF
:1058200061F78091AD02811581F01092E9008091BD
:10583000E800877F8093E8000E948929DECF9330BB
:1058400009F080E08093A802F0CF8091AF028F70C2
:105850002FEF280F263088F68093E9002091EB0087
:1058600020FFE3CF933031F48091EB00806280938E
:10587000EB00DBCF9091EB0090619093EB0021E087
:1058800030E0A90101C0440F8A95EAF74093EA008D
:105890001092EA008091EB008860E9CF8111ADCFD2
:1058A0001091AD021F778091E3008078812B809367
:1058B000E3008091E800877F8093E8000E948929B7
:1058C0008091E80080FFFCCF8091E30080688093A6
:1058D000E30083E0111101C082E08093AA028DCF22
:1058E0008058823008F089CF8091AD029091AE024D
:1058F0008C3D53E0950791F583E08A838AE28983A2
:105900004FB7F894DE01139620E03EE051E2E32F1A
:10591000F0E050935700849120FF03C082958F7070
:105920003F5F8F708A30C0F0895C8D931D922F5F2E
:10593000243169F74FBF8091E800877F8093E800AA
:105940006AE270E0CE0101960E9480288091E80012
:105950008B778093E80051CF805DE7CF6091AF02F5
:105960007091B002AE014F5F5F4F0E943827BC01BB
:10597000892B09F442CF9091E800977F9093E8003B
:1059800089819A810E94E628E1CF803809F035CFDD
:105990008091E800877F8093E8008091A602809341
:1059A000F10021CF811129CF9091AD02923008F002
:1059B00024CF8091E800877F8093E8009093A6022F
:1059C0000E9489298091A602811531F084E080939C
:1059D000AA020E94DD2511CF8091E30087FDF6CF5A
:1059E00081E0F5CFA0E0B0E0E8EFFCE20C944C2DB4
:1059F000E2E00C94682DA0E0B0E0E1E0FDE20C9460
:105A00004B2D8091AA02811599F08091E9001091A7
:105A1000EC008F7010FB112717F9182B1092E9007A
:105A20008091E80083FD0E94AE2B1F701093E90067
:105A3000E3E00C94672D97FB072E16F4009407D033
:105A400077FD09D00E94732D07FC05D03EF4909598
:105A500081959F4F0895709561957F4F0895EE0F42
:105A6000FF1F0590F491E02D099469279627692777
:105A700078278727782708952F923F924F925F9239
:105A80006F927F928F929F92AF92BF92CF92DF924E
:105A9000EF92FF920F931F93CF93DF93CDB7DEB7B3
:105AA000CA1BDB0B0FB6F894DEBF0FBECDBF099447
:105AB0002A88398848885F846E847D848C849B849E
:105AC000AA84B984C884DF80EE80FD800C811B81AC
:105AD000AA81B981CE0FD11D0FB6F894DEBF0FBEDB
