:100000000C9437060C9454060C9454060C94D63277
:100010000C9454060C9454060C9454060C945406F8
:100020000C9454060C9454060C943B2F0C942930D9
:100030000C94951C0C9454060C9454060C94540681
:100040000C9454060C9454060C9454060C945406C8
:100050000C9454060C94112F0C9454060C945406D2
:100060000C9454060C9454060C9454060C945406A8
:100070000C9454060C9454060C9454060C94540698
:100080000C9454060C9454060C9454060C94540688
:100090000C9454060C9454060C9454060C94540678
:1000A0000C9454060C9454060C94540605010980D3
:1000B000A101850319012AB700150126B700950192
:1000C00075108100C0050C0901A101850419012AE0
:1000D000A002150126A002950175108100C005013E
:1000E0000906A1018506050719E029E71500250184
:1000F0009508750181020507190029EF15002501F2
:1001000095F075018102050819012905950575010C
:100110009102950175039101C00660FF0961A1017B
:100120000962150026FF00952075088102096315F4
:100130000026FF00952075089102C005010906A15F
:1001400001050719E029E7150025019508750181CA
:10015000029501750881010507190029FF15002680
:10016000FF0095067508810005081901290515008D
:100170002501950575019102950175039101C0094D
:10018000025B00030100A0FA090400000103010161
:100190000009211101000122440007058103080024
:1001A00001090401000203000000092111010001FE
:1001B0002222000705820320000107050303200017
:1001C00001090402000103000000092111010001DE
:1001D000226D0007058403200001120100020000C7
:1001E0000008534601000100010200010C03430016
:1001F0006F0072006E0065000000100366006F0063
:100200006F007300740061006E00000004030904B5
:100210002B0014001A00080015001700E00004006D
:100220001600070009000A00E1001D001B0006007F
:1002300019000500000000000000E300777C2C009E
:100240002A00130012000C0018001C0034003300B8
:100250000F000E000D000B0029003800370036009B
:1002600010001100000000000000E600787C28006B
:100270002B001E001F00200021002200E0000000D3
:100280000000000000000000E1000000000000008D
:1002900000000000000000000000E30001002C004E
:1002A0002A0027002600250024002300000000006B
:1002B0004F005200510050000000000000000000FC
:1002C00000000000000000000000E600010028001F
:1002D0002B001E021F02200221022202E000000069
:1002E0000000000000000000E1000000000000002D
:1002F00000000000000000000000E30001002C00EE
:100300002A0027022602250224022302350031009A
:1003100030002F002E002D003502310230022F0256
:100320002E022D02000000000000E600010028005F
:10033000007C00000000000000000000207823780E
:1003400025782778000000002178247826782878FE
:1003500000000000000000000000E30001002C008D
:10036000000000000000000000000000000000008D
:10037000000000000000000000000000000000007D
:1003800000000000000000000000E600010028005E
:1003900000AE00AF0000000000003E5B4F5B3E007F
:1003A0003E6B4F6B3E001C3E7C3E1C00183C7E3C6E
:1003B00018001C577D571C001C5E7F5E1C00001837
:1003C0003C180000FFE7C3E7FF00001824180000F6
:1003D000FFE7DBE7FF0030483A060E0026297929BF
:1003E0002600407F05050700407F05253F005A3C59
:1003F000E73C5A007F3E1C1C0800081C1C3E7F0086
:1004000014227F2214005F5F005F5F0006097F01F6
:100410007F00006689956A0060606060600094A259
:10042000FFA2940008047E04080010207E20100023
:1004300008082A1C0800081C2A0808001E101010B2
:1004400010000C1E0C1E0C0030383E383000060E1A
:100450003E0E060000000000000000005F000000EB
:10046000000700070000147F147F1400242A7F2A4D
:100470001200231308646200364956205000000819
:1004800007030000001C224100000041221C000064
:100490002A1C7F1C2A0008083E08080000807030D3
:1004A0000000080808080800000060600000201034
:1004B000080402003E5149453E0000427F400000D2
:1004C0007249494946002141494D33001814127FB1
:1004D00010002745454539003C4A49493100412132
:1004E00011090700364949493600464949291E0085
:1004F0000000140000000040340000000008142236
:1005000041001414141414000041221408000201C4
:10051000590906003E415D594E007C1211127C00C3
:100520007F49494936003E41414122007F414141D6
:100530003E007F49494941007F09090901003E41C8
:10054000415173007F0808087F0000417F4100008F
:100550002040413F01007F08142241007F4040407D
:1005600040007F021C027F007F0408107F003E4194
:1005700041413E007F09090906003E4151215E00CC
:100580007F091929460026494949320003017F01A4
:1005900003003F4040403F001F2040201F003F40DD
:1005A00038403F0063140814630003047804030018
:1005B0006159494D4300007F414141000204081048
:1005C0002000004141417F0004020102040040403C
:1005D00040404000000307080000205454784000C9
:1005E0007F28444438003844444428003844442890
:1005F0007F0038545454180000087E090200182463
:10060000241C78007F080404780000447D4000002A
:100610002040403D00007F102844000000417F4002
:1006200000007C04780478007C08040478003844D6
:10063000444438007C1824241800182424187C0012
:100640007C080404080048545454240004043F4423
:1006500024003C4040207C001C2040201C003C40EA
:1006600030403C004428102844004C9090907C007E
:100670004464544C440000083641000000007700F8
:1006800000000041360800000201020402003C267E
:1006900023263C00000000000000000000000000D5
:1006A00000000000C0E0F0F8F81800C0F0FCFEFF09
:1006B000FFFFFFFFFFFF7E000000000000000000C2
:1006C00080C0E0E0E0E0E0E0E0E0C08000000000AA
:1006D00080C0E0E0E0E0E0E0E0E0C080000000E0BA
:1006E000E0C0C0E0E0E0E00000E0E0C0C0E0E0E04A
:1006F000E0E0C0800000000080C0E0E0E0E0E0E07A
:10070000E0E0C080000000000000000000000000E9
:100710000000E0F0F0F0E0ECEEF7F37020007C7CFD
:100720007C7E007E7E7E7F7F7F000080C0E07E5BDF
:100730004F5BFEC00000C000DCD7DEDEDED7DC0091
:10074000C0000000000000000000000000000000E9
:1007500000000000000000000000000000F8FCFEA7
:10076000FFE000FFFFFFFFFFFF80FFFFFFFFFFFF36
:10077000FFFFFF1F0701000000000000000000FF56
:10078000FFFF8100000000000081C3C3C30000FF21
:10079000FFFF8100000000000081FFFFFF0000FF5D
:1007A000FFFF01000000000000FFFFFF010000004C
:1007B0000001FFFFFF0000FFFFFF9D1C1C1C1C1C15
:1007C0001C9DDFDFDF0000000000000000000000D3
:1007D00000000F1F3F7F7F7F7F7F3F1E0C001F1F8A
:1007E0001F3F003F3F3F7F7F7F00307B7F7830207F
:1007F0002030787F3B0003000F7F0F0F0F7F0F002B
:1008000003000000000000000000000000000000E5
:1008100000000000000000000000000000030F1FA7
:100820003F3F3F3F1F1F3F3F7F7F7F3F3F1F3F7F38
:100830007F7F7F7C7878381C0F000000000000006C
:100840000103070707070707070703010000000068
:100850000103070707070707070703010000000751
:100860000707000000000000000707070000000065
:100870000000070707000000010307070707070735
:100880000707030100000000000000000000000056
:100890000000000000000000000000000000000058
:1008A0000000000000000000000000000000000048
:1008B0000000000000000000000000000000000038
:1008C0000000000000000000000000000000000028
:1008D000000000002223252628292A2C2D2F303223
:1008E000333536383A3B3D3E4042434547494A4C12
:1008F0004E5051535557595A5C5E60626466686940
:100900006B6D6F71737577797B7D7F818385878947
:100910008A8C8E90929496989A9C9E9FA1A3A5A74C
:10092000A8AAACAEAFB1B3B4B6B8B9BBBCBEBFC178
:10093000C2C3C5C6C7C9CACBCCCDCED0D1D2D2D303
:10094000D4D5D6D7D7D8D9D9DADADBDBDBDCDCDC17
:10095000DCDCDDDDDDDDDCDCDCDCDCDBDBDBDADADA
:10096000D9D9D8D7D7D6D5D4D3D2D2D1D0CECDCC51
:10097000CBCAC9C7C6C5C3C2C1BFBEBCBBB9B8B666
:10098000B4B3B1AFAEACAAA8A7A5A3A19F9E9C9AF1
:1009900098969492908E8C8A89878583817F7D7BBF
:1009A00079777573716F6D6B6968666462605E5CA0
:1009B0005A5957555351504E4C4A49474543424066
:1009C0003E3D3B3A3836353332302F2D2C2A2928FC
:1009D00026252322FFAA7F554000010101010101C4
:1009E00001010102020202020202020203030303E6
:1009F00003030303040404040404040505050505B6
:100A00000606060606070707070708080808090973
:100A100009090A0A0A0B0B0B0C0C0C0D0D0D0E0E1E
:100A20000E0F0F0F101011111112121313141415B1
:100A30001516161717181819191A1A1B1B1C1D1D25
:100A40001E1E1F202021222223242425262627287B
:100A500029292A2B2C2D2D2E2F30313232333435AB
:100A6000363738393A3B3C3D3E3F404142434445AE
:100A7000464748494A4C4D4E4F505153545556588D
:100A8000595A5B5D5E5F616264656668696B6C6D37
:100A90006F7072737577787A7B7D7E8082838587AD
:100AA000888A8C8E8F91939596989A9C9EA0A2A3EB
:100AB000A5A7A9ABADAFB1B3B5B7BABCBEC0C2C4F0
:100AC000C6C9CBCDCFD1D4D6D8DBDDDFE2E4E7E9B0
:100AD000EBEEF0F3F5F8FAFDFF00DA0281FFD9F151
:100AE000DB20A4A62EAF00A0C0D30000A1C8D30075
:100AF00000AED580A81F408D1420001E0F050004F5
:100B00007F3F1F643214643214783C1E1E140A05A1
:100B1000808182838485868788898A8B8C8D8E8F5D
:100B20009091929394A0A1A2A3A4A5A6A7A8A9AAD4
:100B3000ABACADAEAFB0B1B2B3B4C0C1C2C3C4C54B
:100B4000C6C7C8C9CACBCCCDCECFD0D1D2D3D400A2
:100B50003A002C206B007800556E64656600416495
:100B60006A757374005261697365004C6F776572C2
:100B70000044656661756C74004C617965723A2059
:100B800000202020206162636465666768696A6B83
:100B90006C6D6E6F707172737475767778797A3167
:100BA000323334353637383930524542545F2D3D73
:100BB0005B5D5C233B27602C2E2F20202000000053
:100BC0000000000000000000000000000000000025
:100BD0000000000000000000000000000000000015
:100BE000007E0F00D4FFFFFFC70000007800000068
:100BF00000000000002A2B28000000000000000078
:100C0000000000000000000029000000002C1E343D
:100C100020212224342627252E362D3738271E1F43
:100C2000202122232425263333362E37381F04056E
:100C3000060708090A0B0C0D0E0F101112131415DC
:100C4000161718191A1B1C1D2F3130232D350405BA
:100C5000060708090A0B0C0D0E0F101112131415BC
:100C6000161718191A1B1C1D2F3130354C00112472
:100C70001FBECFEFDAE0DEBFCDBF27E0A2E1B2E0DA
:100C800001C01D92A634B207E1F712E0A0E0B1E086
:100C9000E8E6FCE602C005900D92A231B107D9F753
:100CA0000E94AE270C94E1350C940000A0E0B0E067
:100CB000ECE5F6E00C941534982F92959F7071F442
:100CC000982F80E0292F2695269511F08E5F922F80
:100CD000969509F08F5FE2E00C94313484E0F2CF16
:100CE000A0E0B0E0E6E7F6E00C9415348093FF0650
:100CF000E2E00C943134A0E0B0E0E1E8F6E00C94DE
:100D0000153480930007E2E00C943134A0E0B0E0A9
:100D1000ECE8F6E00C94153421E001C0220F8A952E
:100D2000EAF780910007822B0E947B06E2E00C9498
:100D30003134A0E0B0E0EFE9F6E00C94153421E0A6
:100D400030E0A90101C0440F8A95EAF7842F80950D
:100D50009091000789230E947B06E2E00C943134D5
:100D6000A0E0B0E0E6EBF6E00C941534292F9830C3
:100D700088F5863078F590E036E0239F800D911D50
:100D8000112451E081FD54E080FD550F82FD529504
:100D900023E0969587952A95E1F7FC01EE0FFF1F5A
:100DA000E80FF91FE752F94F9D0170E04191DF0113
:100DB000CB01022E02C0969587950A94E2F786959C
:100DC000880B8427852384278E932F5F3F4F233002
:100DD000310561F7E2E00C943134A0E0B0E0E3EFDC
:100DE000F6E00C941534292F983078F5863068F5A4
:100DF00090E036E0239F800D911D1124682F6770CD
:100E000023E0969587952A95E1F7FC01EE0FFF1FE9
:100E1000E80FF91FE752F94FAD0180E0219130E072
:100E2000062E02C0369527950A94E2F72170042E0B
:100E300001C0220F0A94EAF7822B4F5F5F4F4330C5
:100E4000510561F7E2E00C94313480E0FBCFA0E083
:100E5000B0E0EDE2F7E00C9415349091000721E04A
:100E600030E0F90101C0EE0F8A95EAF7A1E001C078
:100E7000AA0F6A95EAF7EA2B01C0220F4A95EAF712
:100E8000892F8E23E81307C0892F822B0E947B06AF
:100E9000E2E00C9431342095822F8923F7CFA0E033
:100EA000B0E0E5E5F7E00C941534E0910607909189
:100EB0000507E91304C080E0E2E00C9431342E2FE2
:100EC00030E057E0E59FF0011124E95FF84F5181D0
:100ED000561306C05081581303C05581541304C0E3
:100EE000F901E395E770E5CF81E0E6CFA0E0B0E05F
:100EF000ECE7F7E00C941534809106072091050784
:100F0000281303C0E2E00C94313401968770F8CFC7
:100F1000A0E0B0E0EEE8F7E00C9415349091010702
:100F20008095892380930107282F277069F48917FA
:100F300059F09091030792FF07C086958695869594
:100F40000E94990610920107E2E00C943134A0E06F
:100F5000B0E0EDEAF7E00C9415348091FC06909136
:100F60000407892B9091FD069115C9F0892B90916A
:100F70005501913021F49091020797FD13C096E03E
:100F800026E132E040E09150F90150812F5F3F4F60
:100F900051114F5F9111F7CF41111092FD06E2E020
:100FA0000C9431349EE12EE132E0ECCFA0E0B0E0D1
:100FB000ECEDF7E00C941534982F90958091FC0699
:100FC00089238093FC06E2E00C943134A0E0B0E089
:100FD000ECEEF7E00C941534803E910509F44BC01B
:100FE000F0F48133910509F481C058F489329105F8
:100FF00009F471C08A32910509F47FC0E2E00C94D3
:1010000031348933910559F18238910541F18533A5
:101010009105A1F72091020725FFF0CF29C0843E5A
:10102000910509F446C048F4823E910591F1833E52
:101030009105A1F181EE90E0E1CF863E910509F4A2
:1010400043C0873E9105D1F62091020723FD62C07F
:101050003091030731FF2AC084EE90E0CFCF20917A
:101060000207237009F053C02091030723FFC6CF66
:1010700089E290E0C3CF2091020720FD34C0309177
:10108000030730FFBBCF83EE90E024FFB7CFCD0145
:10109000B5CF2091020722FDF6CFB0CF20910207F5
:1010A00022FD32C03091030730FD31C024FFA6CFAE
:1010B000EECF2091030721FFA1CF8091020784FD8D
:1010C000E6CF87EE90E09ACF2091020723FF96CFDC
:1010D00024FDDDCFF6CF2091020725FD1EC0209113
:1010E000030723FF8BCF89E390E088CF209102078D
:1010F00026FF84CF8AE290E081CF2091020726FF6D
:101100007DCF81E390E07ACF82EE90E077CF80EEE2
:1011100090E074CF86EE90E071CF85E390E06ECFE3
:10112000A0E0B0E0E6E9F8E00C94153490910207F5
:1011300092FF10C041E0282F2471243009F040E0D4
:1011400031E0282F2871283009F030E0431711F0E2
:101150002CE0822793FF10C041E0282F2471243116
:1011600009F040E031E0282F2871283109F030E003
:10117000431711F02CE082273091030730FF10C095
:1011800051E0282F2171213009F050E041E0282F53
:101190002871283009F040E0541711F029E0822727
:1011A00031FF10C041E0282F2171213109F040E0CA
:1011B00031E0282F2871283109F030E0431711F071
:1011C00029E0822794FD877EE2E00C943134A0E090
:1011D000B0E0EDEEF8E00C9411340E94E6078C01CB
:1011E000923508F04CC0903508F0C2C0803E9105A1
:1011F00020F58D3C910508F099C0883A910570F46E
:10120000853A910508F08EC081309105A1F10497CF
:10121000813A910580F100E010E02DC0885A9109D3
:101220004B97C8F7085AE02FF0E0EE0FFF1FEA5582
:10123000FE4F0081118114641EC09034A8F4103256
:1012400008F0ABC0083E1105B0F0C80191509F31C5
:1012500010F7812F0E949008E82E802F90E00E94C6
:10126000E6078C011E2907C090E00E94E6071F7068
:10127000082F192B106AC801E6E00C942D34803831
:1012800042E59407C8F5803652E5950708F055C049
:10129000003482E51807D0F4003292E5190708F00F
:1012A00047C0802F8695869520E2829FC001112439
:1012B000037021E030E0A90102C0440F551F0A95D8
:1012C000E2F78A01082B192B1D68D5CF802F869550
:1012D0008695877050E2859FC0011124037021E03C
:1012E00030E0A90102C0440F551F0A95E2F78A01B8
:1012F000082B192B1C68BFCF803C52E5950740F4A2
:101300008F71003A124570F5182F04EF106AB3CFB1
:10131000805C9245809708F07ECF102F1F7100EF00
:10132000106AA9CF045211091064A5CF1065A3CF8C
:101330000F71102F01EF106A9ECF869586958770EA
:1013400020E2829FC0011124037021E030E0A90156
:1013500002C0440F551F0A95E2F78A01082B192B8A
:101360001A6889CF0E949008182F00E0106283CF7E
:101370008F710E94900893E0000F111F9A95E1F77A
:101380001F70282F30E084FF04C050E1859F90013A
:101390001124022F132B10696ECF812F8F710E94A1
:1013A0009008E82E802F90E00E94E6078C011E290D
:1013B000DDCFA0E0B0E0EFEDF9E00C94153480E073
:1013C000E2E00C943134A0E0B0E0E9EEF9E00C94F6
:1013D0001534F894E82FE295EF70F0E041A18F709A
:1013E00021E030E0B90101C0660F8A95EAF7862F47
:1013F000962F9095942391A392A1892B82A3789400
:10140000E2E00C943134A0E0B0E0E9E0FAE00C94C2
:101410001534E2E00C943134A0E0B0E0E2E1FAE00F
:101420000C940F34362FD72EE82FF0E0E752F64F0A
:10143000711108C0E491CE2E7E2F6E2F8C2DE8E026
:101440000C942B34F491EF2F66E0369F7001112439
:101450000FEF10E0C701B8010E94F133AB01232F59
:10146000220F230F220F260FC8018D199109F89F13
:10147000D001F99FB00D1124CB2ED29EB0011124C2
:10148000672F70E0C801861B970BBC01F69FC00157
:10149000F79F900D11244330510569F1B801621B8B
:1014A00071099B01D29EB001D39E700D1124672F4C
:1014B00070E0061B170BF09F9001F19F300D112477
:1014C000732F6CEFE61663E0F60658F441305105D1
:1014D000B1F04230510509F0B0CFEB2FC32E7F2F72
:1014E000ACCF4430510571F04630510509F4A5CF19
:1014F0007B2FC92EA2CF792FEB2FCF2E9ECF7F2F00
:10150000E92F9BCFE32F7B2FF8CFA1E0B0E0EBE8F2
:10151000FAE00C941534762F2983682F842F0E94CB
:101520000C0A472F909112012981291B922F282FF5
:10153000892F90E00E94AC0D2196E2E00C943134AA
:10154000A0E0B0E0E6EAFAE00C9415348091F406ED
:10155000843070F4837084608093F4068091F70681
:10156000833318F082E38093F706E2E00C94313481
:101570008C3AA0F38370886AEFCFA0E0B0E0E3EC90
:10158000FAE00C9414348091F40680FD06C01091AA
:10159000140180911501181728F00E94C310E3E090
:1015A0000C94303480911201912F981B20E040E080
:1015B00060E0892F90E00E94AC0D1F5FEACFA3E0AE
:1015C000B0E0E5EEFAE00C94143489836A834B832F
:1015D0008091F40680FF08C01091140180911501DC
:1015E000181730F00E94BD0A2396E3E00C943034C3
:1015F00080911201912F981B2B814A816981892F3B
:1016000090E00E94AC0D1F5FE9CFA0E0B0E0EBE0FE
:10161000FBE00C9413348C012091F706FC019481BB
:10162000892F817090FD822F692F627091FD622F4A
:10163000492F447092FD422F0E94DF0AF8018481F5
:10164000019687708483E4E00C942F34A0E0B0E02E
:10165000ECE2FBE00C941534762F9091F40690FFA9
:101660000DC0433308F042E3682F842F0E940C0A18
:10167000962F672F482F892F0E94DF0AE2E00C94F3
:101680003134A0E0B0E0E7E4FBE00C9413348C01CB
:10169000E4EFF6E043816281FC0184810E94260B25
:1016A000F80184818F5F8483E4E00C942F34A0E000
:1016B000B0E0EDE5FBE00C9415341092F206809159
:1016C000F30684608093F306E2E00C943134A0E0EA
:1016D000B0E0EDE6FBE00C9415348091F4068E7FCB
:1016E0008093F4060E94570B8091F30681608093EB
:1016F000F3060E94BD0AE2E00C943134A0E0B0E0B1
:10170000E4E8FBE00C9413348C01DC011496EC91BA
:10171000F0E0EC52F74F4491E4EFF6E06281818112
:101720000E94260BF80184818F5F8483E4E00C948F
:101730002F34EF92FF921F93CF93DF93CDB7DEB795
:101740007C0110E0609116011617E0F00E94BD0ABE
:10175000F7018481928190FF2FC08F5FF70184830E
:10176000DF91CF911F91FF90EF9020E030E040E0BB
:1017700050E060E070E080E090E0A0E0B0E0E0E009
:10178000F0E0089520911401210F3327331F409179
:10179000F706433308F042E370E08FEF90E00E94D9
:1017A0005E34F7018481169F800D11246091F60646
:1017B0000E94850A1F5FC6CF8150D0CFA1E0B0E064
:1017C000E4EEFBE00C940D348C01FC01828180FD81
:1017D0002FC0F1E0F983F801848181110CC0F981F7
:1017E000809116018150F13009F080E0809310045F
:1017F00081E0F8018483B12C80911601B816D8F0ED
:101800000E94BD0A90911004F981F13009F05AC08C
:10181000809116018150911519F08FEF890F91E099
:1018200080931004F80194832196EAE00C94293403
:101830006FEF6983D0CF8091140190911201891BC1
:101840008B0D20E040E060E090E00E94AC0D94E061
:10185000E92EF12CA12CCB2CD12C809110048A0DD7
:10186000873354F166E30E945034892F082E001C00
:1018700000088C150D04C1F4809114019601280F05
:10188000311D4091F7066E2D6403A001112455957A
:10189000479555954795433308F042E36091F60626
:1018A0008091F5060E94850A8981A80EE1E0EE1A72
:1018B000F10899F6B394A0CF87FFD8CF9091160185
:1018C000890FD4CF892F90E001966091160170E0C6
:1018D0000E945E34982FA4CFA0E0B0E0E2E7FCE0E5
:1018E0000C9412348C01FC018481811109C081E0C7
:1018F000848310920F0492E0909306018093050177
:10190000F090140180911501F81648F1F12C6091C6
:101910001601F61688F10E94BD0A8091050190918A
:101920000F04980F90930F0420910601280F209325
:101930000601121654F4209116012150330B092E82
:10194000001C0008921703063CF081958093050166
:10195000813011F4F8011482E5E00C942E3480916A
:101960001201FF2DF81B20E040E060E08F2F90E097
:101970000E94AC0DF394C6CFEF2DF0E070E0CF01E4
:101980000E945E3420911401820F90910F04092E61
:10199000001C0008E917F005BCF090910601092E23
:1019A000001C00089E170F067CF0282F30E04091A5
:1019B000F706433308F042E36091F6068091F5069E
:1019C0000E94850AF394A3CF90911201891B20E015
:1019D00040E060E090E00E94AC0DF4CFA4E0B0E005
:1019E000E4EFFCE00C940D348C01FC01F4802F2D0D
:1019F00030E0D9010E94B0359B01AC010E949D35B9
:101A00005B016C01E0E2F0E0EF19F109A5E59B0153
:101A1000AC010E949D3569837A838B839C839F01EF
:101A2000DF010E943C349B010E947F349B01AC018A
:101A30002A0D3B1D4C1D5D1D69817A818B819C8126
:101A40000E94BF35422FE22E30E0C9012A3228F52C
:101A5000880F991F820F931F95958795F82EF09404
:101A600035E5C32ED12CC41A80911601D81608F181
:101A70000E94BD0AF801948181E0911519F090321D
:101A800019F48FEF8093040180910401890FF8010C
:101A900084832496EAE00C942934880F991F880FD8
:101AA000991F281B390BC90181509F4FAAF6019637
:101AB000D3CF8C2DD1FC8E2D209114012D0D3327E9
:101AC000331F4F2DF3E3FF1608F042E36091F60653
:101AD0000E94850AD394C8CFA0E0B0E0E2E7FDE021
:101AE0000C9411347C018D01909116010917110598
:101AF00054F00E94BD0AF7018481019681708483AD
:101B0000E6E00C942D34F701448180911401980192
:101B1000280F311D6091F6068091F50696950917FC
:101B2000110564F4411561F04091F706433308F064
:101B300042E30E94850A0F5F1F4FD6CF4115A1F3E4
:101B400040E0F7CFA0E0B0E0E8EAFDE00C94153407
:101B5000539AE2E00C943134A0E0B0E0E2EBFDE017
:101B60000C941534FC01EE0FFF1FE80FF91FE75A24
:101B7000FD4F618340832283E2E00C943134A0E086
:101B8000B0E0E5ECFDE00C941534FC01AC014C5FD9
:101B90005F4F8FEF61E39191892728E030E0982F24
:101BA000990F87FF0BC0892F862721503040B9F746
:101BB000E417F50781F7E2E00C943134892FF5CF73
:101BC000A0E0B0E0E6EEFDE00C9415348091AB06A9
:101BD000811559F0E091CF06F091D00680E0309762
:101BE00021F00190F081E02D0995E2E00C94313470
:101BF000A3E0B0E0EEEFFDE00C9415342091550227
:101C00003091560228173907A1F08093550290931E
:101C10005602E091CF06F091D006309751F023E0C4
:101C200029838A839B830084F185E02DCE01019670
:101C300009952396E2E00C943134A3E0B0E0E3E2AE
:101C4000FEE00C9415342091530230915402281771
:101C50003907A1F08093530290935402E091CF068C
:101C6000F091D006309751F024E029838A839B833A
:101C70000084F185E02DCE01019609952396E2E0DE
:101C80000C943134A0E0B0E0E8E4FEE00C941534AC
:101C9000909155019130C1F0A6E1B2E0EFEF90E0F4
:101CA0002C91821739F11196EF3F19F4211101C0DF
:101CB000E92F9F5F9630A1F7EF3FE1F0FE2FFF0F76
:101CC000FF0BEC5EFD4F15C09091020797FFE4CF2C
:101CD000E82FE695E695E695803F60F4F0E0E45E57
:101CE000FD4F877021E001C0220F8A95EAF78281BB
:101CF000822B8283E2E00C943134A0E0B0E0E3E890
:101D0000FEE00C94153490915501913021F490919E
:101D1000020797FD0CC0E6E1F2E09191891302C041
:101D2000DF011E9292E0EC31F907B9F713C0E82FFA
:101D3000E695E695E695803F68F4F0E0E45EFD4FB9
:101D40009DEF81FD97EF80FF959582FD92958281B1
:101D500089238283E2E00C943134A0E0B0E0E3EB2D
:101D6000FEE00C94153480915401E2E00C9431347F
:101D7000A0E0B0E0EEEBFEE00C9415342FB7F89441
:101D800060914F02709150028091510290915202E5
:101D90002FBFE2E00C943134A0E0B0E0E2EDFEE0D1
:101DA0000C9415348091AB06811529F00E94B80E71
:101DB000E2E00C9431340E94B80E2091A7063091D5
:101DC000A8064091A9065091AA06620F731F841FAE
:101DD000951FEECFA0E0B0E0E0EFFEE00C941534EC
:101DE00087E797E7809300089093010888E19AE0DD
:101DF0000FB6F894A895809360000FBE9093600092
:101E0000FFCFA0E0B0E0E7E0FFE00C941534E2E0A3
:101E10000C943134A0E0B0E0E0E1FFE00C94153424
:101E2000FC0120914502309146022617370748F001
:101E30006115710529F49091E8009E779093E80070
:101E40009B0190E02115310551F4911108C080915A
:101E5000E80082FF34C080E0E2E00C9431348091ED
:101E600057068115C1F18530C1F18091E80083FDED
:101E700030C08091E80082FDEACF8091E80080FFC9
:101E8000E1CF8091F3004091F200582F21153105E8
:101E900019F04830510558F091E04830510509F0EB
:101EA00090E04091E8004E774093E800CBCF8191DD
:101EB0008093F100215031094F5F5F4FE7CF809150
:101EC0005706811541F0853041F08091E80083FF8D
:101ED000BECF81E0C1CF82E0BFCF83E0BDCFA0E025
:101EE000B0E0E5E7FFE00C941534982F9093E900FB
:101EF000891771F07091EC002091ED005091F00085
:101F000021FD09C09F5F973089F78093E9001CC0CD
:101F1000762F242F50E03091EB003E7F3093EB0082
:101F20003091ED003D7F3093ED003091EB0031605A
:101F30003093EB007093EC002093ED005093F00091
:101F40002091EE0027FDDECFE2E00C943134A0E0DA
:101F5000B0E0EDEAFFE00C94153480913F0287FF7A
:101F600015C08091E80082FF06C08091E8008B7761
:101F70008093E80004C0809157068111F2CFE2E01F
:101F80000C943134809157068115C9F38091E80093
:101F900080FFF8CF8091E8008E77EACFA0E0B0E034
:101FA000E4EDFFE00C9415342091E4003091E5005D
:101FB00095E6A9012091EC00822F817020FF06C0D8
:101FC0008091E80080FF06C080E018C02091E80002
:101FD00022FD14C080915706811599F0853099F043
:101FE0008091EB0085FD11C02091E4003091E50067
:101FF00042175307F9F29150E1F684E0E2E00C94C5
:10200000313482E0FBCF83E0F9CF81E0F7CFA0E06D
:10201000B0E0EDE0F0E10C940D3408ED10E0F801D3
:1020200080818F7E8083E7ED80818160808384E082
:1020300082BF81E080933E02E8ED80818E7F8083C5
:1020400082EEE82EF12CE2EE10821092DA005701B7
:10205000AA94E1EE1082E8ED80818F778083808101
:102060008068808380818F7D808319BC10925706A1
:1020700010923D021092130410923C026501CA9422
:10208000E0EE80818B7F8083E8ED808181608083BA
:1020900042E060E080E00E946F0FF50180818E7F5A
:1020A0008083E2EE8081816080838081886080838C
:1020B000E0EE80818E7F8083E8ED80818061808387
:1020C000EAE00C942934A0E0B0E0E9E6F0E10C94F9
:1020D0001534E8EDF0E080818E7F80831092E2007D
:1020E0001092DA001092E100A0EE8C9181608C9346
:1020F00080818F77808319BCA7ED8C918E7F8C9324
:1021000080818F7E808310923E02E2E00C94313415
:10211000A6E0B0E0EEE8F0E10C94113489839A83F4
:102120006B837C834D835E8380918E069AE0E92EDB
:10213000F12C8A3018F081E0E82EF12C01E010E05B
:102140006B817C8189819A81ED81FE810995811164
:1021500016C00F5F1F4FE016F1068CF0009F900134
:10216000019F300D300D112480E090E045E34A9549
:10217000F1F70000019682179307C1F7E1CF269689
:10218000E6E00C942D34A0E0B0E0E9ECF0E10C9432
:1021900015343BB1377F2BB128604FB7F89489E5F0
:1021A00092E0FC010196508168E02BB9000000C06C
:1021B00057FF3BB9550F000000C000C000C03BB93D
:1021C00000C06A9591F752E08B3F950751F74FBFDA
:1021D0008FE594E00197F1F700C00000E2E00C9475
:1021E0003134A0E0B0E0E7EFF0E10C9411348B0162
:1021F0007A0190915706943079F58093E9008FEF3A
:102200009091E80095FD06C095ED9A95F1F70000D4
:102210008150B1F78091E80085FF1EC00E94CE0F6B
:10222000811115C08091E80085FD06C08091E8000D
:102230008E778093E800F2CFF80180818093F100DF
:10224000F1E0EF1AF10819F00F5F1F4FEBCF80910B
:10225000E8008E778093E800E6E00C942D34A0E04F
:10226000B0E0E5E3F1E10C9413348C0148E050E078
:10227000BC0181E00E94F11088E0F801A7E4B2E01F
:1022800001900D928A95E1F7E4E00C942F34A0E0E0
:10229000B0E0EDE4F1E10C94153440E250E0BC0113
:1022A00084E00E94F110E2E00C943134A0E0B0E050
:1022B000ECE5F1E10C94153443E050E0BC0184E01E
:1022C0000E94F110E2E00C943134A0E0B0E0EBE6C3
:1022D000F1E10C9415349091030792FB222720F929
:1022E000281779F080FB92F9909303076091020719
:1022F0007091030784E090E00E94683582E00E94BC
:102300008807E2E00C943134A1E0B0E0EAE8F1E1C2
:102310000C94133429838430E0F46830D0F44630D0
:10232000C0F4042F10E0000F111F9CE0699F000D06
:10233000111D112490E6899F000D111D1124632F9A
:10234000C80188960E944A356981C80189960E9411
:102350004A352196E4E00C942F348F929F92AF92ED
:10236000BF92DF92EF92FF920F931F93CF93DF9371
:10237000CDB7DEB7812C912CE12C5401F12C15C086
:10238000F801259135914D2D6F2D8E2D0E948411D0
:102390000E5F1F4FD39486E0D812F2CF86E0A80ECE
:1023A000B11CF39488E0F81639F08501000F111F75
:1023B000005F1D4FD12CE4CFE39480E3880E911C85
:1023C00084E0E812DACFDF91CF911F910F91FF9057
:1023D000EF90DF90BF90AF909F908F9020E030E023
:1023E00040E060E080E0E0E0F0E00895A0E0B0E0F0
:1023F000ECEFF1E10C94133408EA11E060E0C8015D
:102400000E944A350F5F1F4F011584E01807B1F78E
:10241000E4E00C942F34A0E0B0E0E1E1F2E10C94B0
:102420001434182F66E2811101C06FEF84E290E04E
:102430000E944A3562E0111101C06FEF85E290E021
:102440000E944A3569E1111101C06FEF86E290E008
:102450000E944A35E3E00C943034A0E0B0E0E3E3BE
:10246000F2E10C94153480E00E940B1260E087E2E8
:1024700090E00E944A350E94AD110E94F61181E061
:102480000E940B12E2E00C943134A0E0B0E0EBE4E7
:10249000F2E10C9411348430F8F46830E8F44630FA
:1024A000D8F4042F10E0000F111F9CE0699F000D6D
:1024B000111D112490E6899F000D111D1124C801E2
:1024C00088960E942635E82EC80189960E942635F6
:1024D0009E2DE6E00C942D34CD01FBCFA0E0B0E0C2
:1024E000E4E7F2E10C941534462F783050F466306E
:1024F00040F4843030F4672F0E944512E2E00C94DF
:102500003134CD01FBCFA2E0B0E0E9E8F2E10C9478
:10251000103489839A83E09000078091FF06E82AAF
:1025200003E010E0F12CC701002E02C095958795BD
:102530000A94E2F780FD09C001501109A0F7D12CDF
:102540008D2D2296E7E00C942C34D02E69817A816F
:10255000802F0E946E120E94E708019769F3F0CF66
:10256000A1E0B0E0E6EBF2E10C941334FC0125812C
:1025700000811181C801211589F0611579F00E944F
:1025800083128983682FC8010E94B006B80189812F
:102590000E946E122196E4E00C942F340E94ED0606
:1025A0008983F4CFA2E0B0E0E8EDF2E10C941534B9
:1025B00089839A830E94831269817A810E946E12B4
:1025C0000E94E7082296E2E00C943134A0E0B0E0EB
:1025D000ECEEF2E10C941534FC0124812115A9F0F4
:1025E000808191810E94D212282F92959F709630FF
:1025F000B1F068F4925F9F70923038F481E0203F30
:1026000059F038F481E0283E38F080E005C09A5F48
:10261000F2CF81E0243FC9F7E2E00C94313491E03D
:10262000213F09F090E081E0283E08F080E0892B0E
:10263000F3CFA2E0B0E0EFE1F3E10C94133489832F
:102640009A83FC0100811181C8010E9426350F5F29
:102650001F4FE981FA81008311832296E4E00C94F4
:102660002F34A0E0B0E0E7E3F3E10C94153484E20A
:1026700090E00E942635863269F485E290E00E945F
:102680002635823039F486E290E00E94263591E0CA
:10269000893109F090E0892F8170E2E00C943134A7
:1026A000A0E0B0E0E6E5F3E10C941534809155012B
:1026B000813069F58091020787FF29C00E94A70732
:1026C00080931D0240E250E06FEA76E08CE192E0F8
:1026D0000E941035892BC1F080E2ECE1F2E0AFEA14
:1026E000B6E001900D928A95E1F7E091CF06F09166
:1026F000D006309749F086E080931C020480F58173
:10270000E02D8CE192E00995E2E00C9431340E94D6
:10271000A7078093140248E050E061ED76E084E181
:1027200092E00E941035892B79F388E0E4E1F2E031
:10273000A1EDB6E001900D928A95E1F7E091CF0608
:10274000F091D006309701F30280F381E02D84E10F
:1027500092E0D9CFA0E0B0E0E0EBF3E10C941434C8
:10276000182F8115D9F08CEF810F813A98F580915F
:102770005501813021F48091020787FD12C0E6E106
:10278000F2E08081181701F1319622E0EC31F20776
:10279000C1F7812F0E94420E0E945013E3E00C9477
:1027A0003034E12FE695E695E695F0E0E45EFD4FE6
:1027B000828190E0412F477021E001C0220F4A95AD
:1027C000EAF78223892B29F3812F0E947D0E0E9434
:1027D0005013DFCF80E2810F883060F4177081E002
:1027E00001C0880F1A95EAF71091FC06182B109378
:1027F000FC06D2CF8BE5810F833038F4212F245291
:10280000330BC9010E94F80DC9CF185A1B3130F69D
:10281000E12FF0E0EE0FFF1FE452FE4F8081918127
:102820000E941D0EBBCFA0E0B0E0E9E1F4E10C9402
:102830001534811541F09CEF980F913A38F40E94BD
:102840007D0E0E945013E2E00C94313490E2980F18
:10285000983058F4982F81E091FD84E090FD880F26
:1028600092FD82950E94D607ECCF9BE5980F93309E
:1028700020F4CD010E94F80DE6CF885A8B3118F76D
:10288000CD010E941D0EDFCFA1E0B0E0EAE4F4E14B
:102890000C94133489838B010E94AA13011511052E
:1028A00039F489810E9413142196E4E00C942F34AA
:1028B0008FE99FE00197F1F700C000000150110976
:1028C000EDCFA0E0B0E0E7E6F4E10C94153481151B
:1028D00039F09091FC06982B9093FC060E945013BF
:1028E000E2E00C943134A0E0B0E0E9E7F4E10C94CC
:1028F0001534811521F00E94D6070E945013E2E0A2
:102900000C943134A0E0B0E0E8E8F4E10C94153424
:102910001092FC06809155018130D1F4809102071C
:1029200087FF16C0EEE1F2E08EE1DF011D928A958D
:10293000E9F780E090E00E94F80D80E090E00E94CE
:102940001D0E109204070E945013E2E00C943134E3
:10295000E6E1F2E086E0E9CFA0E0B0E0E2EBF4E10E
:102960000C9415340E9482142FEF84E39CE02150D4
:1029700080409040E1F700C0000088E19AE00FB687
:10298000F894A895809360000FBE90936000FFCFED
:10299000AAE2B0E0EEECF4E10C9414348FE392E0A0
:1029A000FC0101962091F100208322E087349207F8
:1029B000B9F780914002893009F45AC0C8F48230D6
:1029C00009F4B8C0833009F487C0813091F1809157
:1029D000E80083FFECC080913F02909140029A3062
:1029E00008F0E5C0E92FF0E0ED51FA4C0C94723498
:1029F0008A3009F48EC08B3051F780913F028132CA
:102A000031F78091430290914402892B01F7809124
:102A1000E800877F8093E8000E94A70F81E09091F3
:102A20004102911101C080E0809355010E948214FF
:102A3000CECF80913F02813A51F68091E800877FA6
:102A40008093E8008091430290914402892B61F0C9
:102A500060E080E090E070E00E940A0F8091E80062
:102A60008B778093E800B3CF68E087E492E0F3CF00
:102A700080913F02813209F0AACF80914302909168
:102A800044028D7F892B09F0A2CF8091E800877FD7
:102A90008093E8008091E80082FF19C02091F30044
:102AA0008091F200922F029731F48091F1008130F1
:102AB00011F0863021F48091F100809354018091CF
:102AC000E8008B778093E8000E94A70F80CF809169
:102AD00057068111DFCF7BCF80913F02813A09F009
:102AE00076CF8091430290914402892B09F06FCFF9
:102AF0008091E800877F8093E8008091E80080FF64
:102B0000FCCF809155018093F1008091E8008E7791
:102B1000D9CF80913F02813209F059CF8091E800EE
:102B2000877F8093E8000E94A70F809142028093E4
:102B300053014DCF80913F02813A09F048CF8091F7
:102B4000E800877F8093E8008091E80080FFFCCF59
:102B500080915301D8CF803889F0823841F5809137
:102B600043028F70873018F58093E9008091EB0065
:102B700085FB882780F91092E90006C08091130434
:102B8000880F90913C02892B9091E800977F909359
:102B9000E8008093F1001092F1008091E8008E77B8
:102BA00023C0811116C080914102813011F18091C2
:102BB000E80083FF0AC08091E800877F8093E800E7
:102BC0008091EB0080628093EB00AA96E3E00C9486
:102BD0003034823061F780914102811581F010928A
:102BE000E9008091E800877F8093E8000E94A70FAA
:102BF000DECF933009F080E080931304F0CF809112
:102C000043028F702FEF280F263088F68093E9005B
:102C10002091EB0020FFE3CF933031F48091EB0063
:102C200080628093EB00DBCF9091EB0090619093FA
:102C3000EB0021E030E0A90101C0440F8A95EAF7DA
:102C40004093EA001092EA008091EB008860E9CF9F
:102C50008111ADCF109141021F778091E300807800
:102C6000812B8093E3008091E800877F8093E800C8
:102C70000E94A70F8091E80080FFFCCF8091E300C5
:102C800080688093E30083E0111101C082E08093AB
:102C900057068DCF8058823008F089CF809141024D
:102CA000909142028C3D53E0950791F583E08A8331
:102CB0008AE289834FB7F894DE01139620E03EE064
:102CC00051E2E32FF0E050935700849120FF03C0BE
:102CD00082958F703F5F8F708A30C0F0895C8D93D2
:102CE0001D922F5F243169F74FBF8091E800877FE5
:102CF0008093E8006AE270E0CE0101960E940A0F1C
:102D00008091E8008B778093E80051CF805DE7CF1A
:102D1000292F30E02330310509F44DC078F52130FA
:102D2000310509F47CC08BE590E0EFE7F1E022305B
:102D3000310509F03CCF2091E800277F2093E8007F
:102D400020914502309146028217930708F49C01B6
:102D500040E02115310509F067C0411165C080913F
:102D6000E80082FDCDCF80915706811549F285306C
:102D700039F28091E80083FFF2CFC2CF8091430205
:102D80009091440221323105D9F12232310509F006
:102D90000ECF8330910508F00ACFFC01EE0FFF1F24
:102DA000E55AFE4F0190F081E02D885A9E4FDC01DC
:102DB0008C9190E011C0282F30E0813089F02230D2
:102DC0003105B1F0232B09F0F2CEECE0F2E0E49112
:102DD0008E2F90E0ECE0F2E0009709F4E8CEABCF64
:102DE000EAEFF1E0E4918E2F90E0EAEFF1E0F4CF2A
:102DF000ECEEF1E0E4918E2F90E0ECEEF1E0ECCF20
:102E00008330910508F0D3CEFC01EE0FFF1FEF5980
:102E1000FE4F0190F081E02D89E090E08CCF82E1BF
:102E200090E0EAEDF1E087CF80915706811509F433
:102E300067CF853009F464CF8091E80083FD60CFCF
:102E40008091E80082FD8BCF8091E80080FF81CFE8
:102E50004091F3008091F200942F2115310519F073
:102E60008830910550F041E0089709F040E08091EA
:102E7000E8008E778093E8006CCF44914093F10096
:102E80003196215031090196E8CF803809F08FCE74
:102E90008091E800877F8093E80080913D028093D5
:102EA000F1007BCE811183CE10914102123008F0E7
:102EB0007ECE8091E800877F8093E80010933D02EA
:102EC0000E94A70F1115F9F084E08093570642E0A5
:102ED00061EC81E00E946F0F42E261EC84E00E94AD
:102EE0006F0F42E261EC82E00E946F0F42E260EC01
:102EF00083E00E946F0F80915706843051F482E086
:102F00008093560154CE8091E30087FDDDCF81E0B0
:102F1000DCCF81E0F5CFA4E0B0E0E1E9F7E10C948B
:102F20001134E0905C06F0905D0600915E06109111
:102F30005F060E94B80E6E197F09800B910B11E09D
:102F4000643671058105910570F10E94CC0EDC019B
:102F5000CB010296A11DB11D89839A83AB83BC83EB
:102F600080914401909145018459994F20914301EA
:102F7000422F50E0253008F044E0BE016F5F7F4FE4
:102F80000E941D3583E090E00E947933182F81154F
:102F900051F00E94B80E60935C0670935D068093BA
:102FA0005E0690935F06812F2496E6E00C942D3404
:102FB000A6E0B0E0EEEDF7E10C940F3489836A836C
:102FC0007B834C832D833E83FB01C080D180E280D4
:102FD000F3800E94B80E6C197D098E099F09643632
:102FE00071058105910518F4FC81F11539F189818C
:102FF000E82EF82EFF0CFF0898E08902F00111245A
:10300000E55DFE4F818192818459994F2081422F45
:1030100050E00217110508F4A8016D817E810E941D
:103020001D35C7010E947933811549F00E94B80E01
:10303000EA81FB81608371838283938381E026969A
:10304000E8E00C942B34ABE0B0E0E9E2F8E10C945A
:10305000133428E0E4EFF6E0CE010196DC010190A4
:103060000D922A95E1F73091F1062091F2065091E8
:10307000F30639872A875B8741E09C01511101C023
:1030800040E00BE010E068E576E084E00E94D817AD
:1030900081111092F3062B96E4E00C942F34A2E0F9
:1030A000B0E0E5E5F8E10C94133489839A8344E0B9
:1030B00050E061E776E00E94103541E0892B09F489
:1030C00040E004E010E029813A8160E676E082E0A9
:1030D0000E94D8172296E4E00C942F34CF92DF920E
:1030E000EF92FF921F93CF93DF9300D000D000D0D8
:1030F0000F92CDB7DEB76E837F8380E090E00E94B1
:103100007933182F811509F460C080912E01482F62
:1031100050E0811141E060912F01709130016459BC
:10312000794FCE0105960E941D35C0906806D0905B
:103130006906E0906A06F0906B060E94B80E6C1962
:103140007D098E099F09643671058105910538F462
:103150008DE696E00E94BF0D9D818917B1F181E057
:1031600090E00E9479338115F1F180913601482F6A
:1031700050E0853008F044E06091370170913801EB
:103180006459794FCE0101960E941D358DE696E077
:103190000E94BF0D9D81891326C00E94B80E6093C6
:1031A00068067093690680936A0690936B0689811E
:1031B0009A81AB81BC818093640690936506A0934D
:1031C0006606B093670681E00FC080916D0690910E
:1031D0006E06A0916F06B091700689839A83AB83C7
:1031E000BC831111E4CF80E04091640650916506E4
:1031F0006091660670916706EE81FF81408351837E
:103200006283738327960FB6F894DEBF0FBECDBFDF
:10321000DF91CF911F91FF90EF90DF90CF9040E032
:1032200050E060E070E090E0A0E0B0E0E0E0F0E0CE
:103230000895A3E0B0E0EFE1F9E10C940A34FC0159
:1032400022812983748081E08483E4EDF8E0949006
:10325000E3E5F9E0E4910091F7060695015810E0E6
:10326000000F111F012F10E0C12C25E0D22E882461
:103270008A94E919EA831B8280911601C81630F0FE
:103280000E94BD0A2396EDE00C942634AC2CB12CA0
:103290009981933058F4DC9CF0011124EF5FFC4FCE
:1032A0008091F50680838091F6068183711026C097
:1032B000DA9CF001DB9CF00D1124EF5FFC4F1382D0
:1032C0001282809114019501280F311DDA9CF001C2
:1032D000DB9CF00D1124EF5FFC4F4281433308F07B
:1032E00042E3DA9CF001DB9CF00D1124EF5FFC4F10
:1032F000618180810E94850AC394BECFDA9CC0019F
:10330000DB9C900D1124FC01EF5FFC4F7F0183815A
:103310008115F9F081508383889EC0011124648156
:1033200070E00E94F133E62FF0E0EC52F74F849109
:10333000E82FE9198E9EC00111246A817B810E94C9
:10334000F1338091F706689FB0011124F701728371
:10335000B8CF0E94DC346FEF70E00E945E348017BB
:1033600091070CF0AECFF981F330A0F00E94DC346D
:103370006FEF70E00E945E34F70180830E94DC34BE
:103380002091F6062695622F70E00E945E34280F89
:10339000F7012183DA9CF001DB9CF00D1124EF5F33
:1033A000FC4F12828091F706893C58F088ECDA9C39
:1033B000F001DB9CF00D1124EF5FFC4F84838383CD
:1033C00080CF8431A0F784E1F2CF0F93CF93DF93C6
:1033D00000D000D000D00F92CDB7DEB729833A835A
:1033E0004B83052F6C837D838E839F830E94A00A6D
:1033F00049815A816B81702F88E090E00E945C3592
:103400006C81262F60E070E0CB01622F83E20E9486
:103410004A3527960FB6F894DEBF0FBECDBFDF91B9
:10342000CF910F9120E030E040E050E060E070E0AC
:1034300080E090E00895A0E0B0E0E1E2FAE10C94D1
:1034400015348091F806833018F48F5F8093F80666
:103450002091F4063091F5064091F6065091F7065A
:103460006091F8067091F9068091FA069091FB063A
:103470000E94E519E2E00C943134A0E0B0E0E3E40E
:10348000FAE10C9415348091F806811519F08150F9
:103490008093F8062091F4063091F5064091F606E7
:1034A0005091F7066091F8067091F9068091FA063E
:1034B0009091FB060E94E519E2E00C943134A1E002
:1034C000B0E0E5E6FAE10C940F34082FD62E142F65
:1034D00029839091F40690FF44C03091F50638138B
:1034E00008C08091F606861304C08091F706841701
:1034F00029F08091F30682608093F306292F2695A8
:103500002695E22FF0E0E959FE4F80818093F10685
:103510009C7F943051F5812F133308F082E3602FA4
:103520007D2D0E940C0A962F672F482F892F0E940D
:10353000DF0A302F3093F506D092F6061093F70687
:103540008981811571F02091F4066091F8067091DF
:10355000F9064D2D512F8091FA069091FB060E949D
:10356000E5192196E8E00C942B34823019F410917F
:10357000F706DFCF8630F1F28930E1F28931C9F602
:1035800087EEC82EC20EEC2DE695F0E0EC52F64F19
:10359000E490F12C60911601F61618F00E94BD0A15
:1035A000C8CFFE9CC001112470E00E94F133802F2F
:1035B000C0FC0FC0860F209114012F0D3327331F3D
:1035C000412F133308F042E36D2D0E94850AF394D6
:1035D000E1CF861BF0CFA0E0B0E0E1EFFAE10C9480
:1035E0001534E4EFF6E0818121E043816281885F58
:1035F0000E945F1AE2E00C943134A0E0B0E0E3E016
:10360000FBE10C941534E4EFF6E0818121E0438185
:10361000628188500E945F1AE2E00C943134A0E08D
:10362000B0E0E5E1FBE10C941534E4EFF6E06281F3
:1036300021E1620F08F46FEF21E0438181810E9454
:103640005F1AE2E00C943134A0E0B0E0EAE2FBE182
:103650000C941534E4EFF6E0628121E1621B08F47A
:1036600060E021E0438181810E945F1AE2E00C94D6
:103670003134A0E0B0E0EFE3FBE10C941534E4EF6B
:10368000F6E0438121E1420F08F44FEF21E062812F
:1036900081810E945F1AE2E00C943134A0E0B0E036
:1036A000E4E5FBE10C941534E4EFF6E0438121E11D
:1036B000421B08F440E021E0628181810E945F1A90
:1036C000E2E00C943134A0E0B0E0E9E6FBE10C94D8
:1036D0001534AB0124E630E0BC0188E70E945E317E
:1036E0009C0181E0232B09F080E0E2E00C9431346E
:1036F000A0E0B0E0EEE7FBE10C94153480915506B4
:103700008115F9F00E94B80EDC01CB01805A954179
:10371000AF4FBF4F80934E0690934F06A093500635
:10372000B09351068091520681110BC062E070E0A7
:1037300082E993E00E94631B811519F081E0809378
:103740005206E2E00C943134A0E0B0E0EAEAFBE19A
:103750000C94153480915506811569F080915206BC
:10376000811549F062E070E080E993E00E94631BFC
:10377000811110925206E2E00C943134A0E0B0E0E6
:10378000E4ECFBE10C941334682F81E06A3019F00B
:103790006D3031F480E00E94401CE4E00C942F3442
:1037A000809120049091210426E0FC01ABEFB2E06F
:1037B00001900D922A95E1F7603E08F456C026E08C
:1037C000FC0111922A95E9F700912004109121043F
:1037D00046E050E0B8018BEF92E00E94103598016E
:1037E0002A543440892B41F1C90145E096958795CB
:1037F0004A95E1F741E050E0BA0102C0660F771F39
:103800008A95E2F7CB0160914C0670914D06862BAC
:10381000972BB9016B5F7F4FE5E076956795EA9549
:10382000E1F702C0440F551F6A95E2F7842B952BF0
:1038300080934C0690934D062A5F3F4F409122049F
:10384000642F70E0C9010E94F133481B463010F428
:10385000240F311D323010F020E030E0265B3B4F6A
:10386000209320043093210498CFF6E06F9FB0019D
:1038700011246C567C4F46E050E00E94FA34A4CFED
:10388000A0E0B0E0E6E4FCE10C941434382FE091C1
:103890002004F0912104EA54F44020912204622F84
:1038A00070E0CF010E94F133281B822F311571F097
:1038B00066E00E944434182F111103C0E3E00C9419
:1038C0003034115080E20E94BE1BF6CF8E0F9F2F26
:1038D000911D923010F080E090E0865B9B4F8093CA
:1038E000200490932104EACFA0E0B0E0EAE7FCE1F5
:1038F0000C9413348C01F8018491811103C0E4E02D
:103900000C942F340E94BE1B0F5F1F4FF4CFA0E01A
:10391000B0E0EDE8FCE10C9415340E94741C81E0E9
:103920000E94401CE2E00C9431341F921FB61F929B
:1039300011248F939F93AF93BF93CF93DF93CDB712
:10394000DEB780911204811113C080914F029091D3
:103950005002A0915102B09152024196A11DB11D99
:1039600080934F0290935002A0935102B093520261
:10397000DF91CF91BF91AF919F918F911F901FBE0B
:103980001F901895A0E0B0E0E8ECFCE10C94153431
:103990002FB7F89480914F0290915002A09151025C
:1039A000B09152022FBFE2E00C943134A0E0B0E0BD
:1039B000ECEDFCE10C9415348091AB06811539F0E7
:1039C0000E94C21C282F822FE2E00C9431340E9406
:1039D000CC0E262F972FF7CFA0E0B0E0E2EFFCE16E
:1039E0000C9415346091F4066695669570E04BE092
:1039F00050E087E091E00E940335892B19F481E0C3
:103A00008093F2060E94D61C8093880690938906C4
:103A10008091F30684608093F306E2E00C943134E5
:103A2000A0E0B0E0E6E1FDE10C9415349091F406DD
:103A300090FF42C0811509F442C08B3208F041C0AA
:103A40008F73282F220F220F8091F4068370282B6A
:103A50002093F4068091F30681608093F30661154C
:103A600081F03091F5064091F6065091F70660918D
:103A7000F8067091F9068091FA069091FB060E9473
:103A8000E5196091F4066695669570E04BE050E0AC
:103A900087E091E00E940335892BA9F00E94570B23
:103AA00081E080938B0620E04091F7066091F60656
:103AB0008091F5060E945F1AE2E00C94313481E0B7
:103AC000C0CF8AE2BECF0E94EC1CEACFA0E0B0E0FB
:103AD000ECE6FDE10C9415348091F406869586950C
:103AE0008F5F8B320CF081E061E00E94101DE2E0FC
:103AF0000C943134A0E0B0E0E0E8FDE10C94153422
:103B00008091F40686958695815009F48AE261E0F9
:103B10000E94101DE2E00C943134A2E0B0E0E3E931
:103B2000FDE10C94153489839A830E94C21C29817B
:103B30003A81821B930B2296E2E00C9431348F92EF
:103B40009F92AF92BF92EF92FF920F931F93CF93EA
:103B5000DF93CDB7DEB764970FB6F894DEBF0FBE24
:103B6000CDBFFE013C9688E0DF011D928A95E9F702
:103B70008CE9E82E81E0F82E8F01EC8BA12E91E0EC
:103B8000892E912CF70181917F018F3F09F43FC06D
:103B9000F894E82FE295EF70F0E021A18F70A40176
:103BA00001C0440F8A95EAF7842F922F942B91A39A
:103BB00092A18095892382A3789400C0E0EAF1E085
:103BC00031E0B12C21912F3F79F0A22FA295AF7057
:103BD000A05EB0E08C9190E02F7002C09595879523
:103BE0002A95E2F780FFA5C080E0B82A330F86EA65
:103BF00091E08E179F0731F7F70182918F3F11F007
:103C00000E94E30990EA9A95F1F7D801BC920F5F00
:103C10001F4FB0EAEB16B1E0FB0609F0B3CF48E066
:103C200050E06C897A2D8FE996E00E94103500975C
:103C300049F028E0EC89FA2DAFE9B6E001900D9249
:103C40002A95E1F700919E0610E00A56194F892B3C
:103C500009F471C081E0809395060E94C21C809394
:103C60009306909394068091AB067E01EFEFEE1AD7
:103C7000FE0A811509F4BBC084E0D7011D928A9524
:103C8000E9F780918E068A3008F079C04EE658E157
:103C9000B701C8010E948810811509F496C04FE44D
:103CA00058E1B701C8010E948810811509F48DC040
:103CB0004BE857E1B701C8010E948810811509F44B
:103CC00084C043E258E1B701C8010E948810811501
:103CD00009F47BC010928E068091920690E044E039
:103CE00050E0B7018A56994F0E94103521E0209389
:103CF0009106892B09F05BC064960FB6F894DEBF7D
:103D00000FBECDBFDF91CF911F910F91FF90EF902C
:103D1000BF90AF909F908F9020E030E040E050E067
:103D200060E070E080E090E0A0E0B0E0E0E0F0E093
:103D30000895832F5ACF80919506811509F493CF6A
:103D4000E0909306F09094060E94C21C8E199F0981
:103D5000059708F488CF44E050E06FE976E0C801A9
:103D60000E941035892B41F084E0EFE9F6E0D8019C
:103D700001900D928A95E1F71092950674CFA0906C
:103D80008F06B09090060E94C21C8A199B09843F3E
:103D9000914008F07BCF80919106811509F4ACCF5A
:103DA00084E0F70111928A95E9F710929106E0916B
:103DB0009206F0E0EA56F94F89819A81AB81BC8185
:103DC00080839183A283B38397CF80918E068F3FA8
:103DD00039F40E94C21C80938F0690939006DBCF2B
:103DE0008F5F80938E068A3008F476CFF2CFA09052
:103DF0009206B12CA5014A56594F5A01F80180810B
:103E00009181A281B38180936D0690936E06A093F9
:103E10006F06B09370068DE696E00E94BF0D80930A
:103E20006C068091710690917206A0917306B09114
:103E30007406F50180839183A283B3838090750615
:103E400090907606A0907706B090780680918406D0
:103E500090918506A0918606B091870688169906EE
:103E6000AA06BB06B1F08092840690928506A092C5
:103E70008606B09287060E94B80E861A970AA80A8C
:103E8000B90A8092A7069092A806A092A906B092BD
:103E9000AA068BE0E9E7F6E0D70101900D928A953A
:103EA000E1F7F0907A06E0907B06B0907C060091F6
:103EB00082061091830610928306111509F41CCF17
:103EC00010FF0DC0898180FF1EC09091F4069160A3
:103ED0009093F40660E0869586950E94101D11FF70
:103EE00006C020E04B2D6E2D8F2D0E945F1A12FF11
:103EF00004C0011559F00E94EC1C13FFFDCE81E0B7
:103F000080938B06F9CE0E94670BE9CF0E94570B76
:103F1000F4CFA2E0B0E0EFE8FFE10C941134162FEB
:103F2000042F2A838115A9F06093EF060E94C21C1A
:103F3000809357029093580281E011FD84E010FDB8
:103F4000880F12FD82950E9461142296E6E00C947F
:103F50002D348091EF06681339C0E0905702F0903D
:103F600058020E94C21C8E199F09883C910570F569
:103F700080E2800F89831017B9F01770FF24F39443
:103F80008F2D012E01C0880F0A94EAF70E94731446
:103F90008981883048F4802F877001C0FF0C8A9592
:103FA000EAF78F2D0E94611460E070E08A810E9420
:103FB00044148981883048F681E001FD84E000FDE9
:103FC000880F02FD82950E947314BFCF81E011FD1E
:103FD00084E010FD880F12FD8295F5CFA3E0B0E0DC
:103FE000E4EFFFE10C940B346C01FC01848181153A
:103FF00009F4DAC061E0C6010E94B0128C01F6013A
:104000008581811509F438C191819093EE069081E4
:104010009093ED0690E2909357010093EB06109376
:10402000EC0698013052303208F044C0F601968117
:10403000903108F44FC0E02FF0E0ED33F10528F4A3
:10404000EF57F44FE491E093570198013757203828
:104050003105C8F5F02E20E1021708F096C08FEF69
:1040600093E00E942635811190C008EA11E0F1101A
:1040700059C009831A838E010F5F1F4FC8010E9428
:104080001913A02E912E813008F47FC009F0A9C029
:10409000C8010E941913813009F054C0C8010E9460
:1040A000191360E570E0893311F060E070E00E9460
:1040B0004414E4CF98013054303138F5F60196813C
:1040C000903108F0B8CFF801E851FC47E730F1052E
:1040D00008F4D8C01092EF0698013057233231050A
:1040E00008F0E3C484E090E00E9434358093020736
:1040F00090930307F801E150F047E232F10508F030
:10410000F0C0E351FA4C0C947234980131503F31B5
:1041100008F491CF9801205A324520323105D0F26F
:10412000F8018BCF011534E0130779F1C8010E9423
:104130002635811519F00F5F1F4FF4CFFA940F5FEA
:104140001F4F95CF823031F4C8010E9419130E948D
:10415000AA1394CF833031F4C8010E9419130E942E
:1041600013148CCF843079F4C8010E941913E12C08
:10417000F12C3AE0B32EE82FE053FF0B3A97C0F052
:10418000E114F10421F5811179CF80910107877045
:1041900059F0F6018581811539F08091030782FF7E
:1041A00003C082E00E9488072396ECE00C94273439
:1041B000BE9C9001BF9C300D1124280F311D20534F
:1041C000310979018A2D992D0E941913D4CFEFE975
:1041D000FFE03197F1F700C00000F1E0EF1AF108BD
:1041E000CFCFE82FF0E0E351F44F24912B83282F19
:1041F00026952695269530E0F901E352F44FE49098
:104200008770F12C082E02C0F594E7940A94E2F727
:10421000F901E353F44FA490B12C082E02C0B594D9
:10422000A7940A94E2F7F901E354F44F8490912C97
:1042300002C0959487948A95E2F7E0FE03C081EE70
:104240000E94AA13A0FE03C086EE0E94AA1360E09B
:1042500070E08B810E944414A0FE03C086EE0E9491
:104260001314E0FE03C081EE0E94131480FE06CFFB
:1042700060E070E08CE21BCFF801E851FC47E730CA
:10428000F10508F5E15FF94C0C94723426E241EE39
:1042900061EE0E94891F79CF27E245EE65EEF9CFE6
:1042A00026E241EE60EEF5CF27E245EE64EEF1CF77
:1042B00026E241EE62EEEDCF27E245EE66EEE9CF73
:1042C00028E241E0EBCF06313CE7130709F0D1C00B
:1042D0008091F006811509F4BEC085E30E947D0E31
:1042E000F8C3809102078160809302076091020702
:1042F0007091030784E090E00E9468350E94821468
:1043000044CF80910307886080930307EFCF8091AB
:1043100002078260E9CF809102078460E5CF809137
:1043200002078860E1CF809103078160EDCF809123
:1043300003078260E9CF809102078061D5CF809129
:1043400002078062D1CF809102078064CDCF0E94A6
:104350008214809102078068C7CF809102078C6029
:10436000C3CF809103078360CFCF809102078E7FF8
:10437000BBCF80910307877FC7CF809102078D7FD6
:10438000B3CF809102078B7FAFCF80910207877FE9
:10439000ABCF809103078E7FB7CF809103078D7FCE
:1043A000B3CF809102078F7E9FCF809102078F7DD0
:1043B0009BCF809102078F7B97CF0E9482148091C0
:1043C00002078F7791CF80910207837F8DCF8091F5
:1043D00003078C7F99CF90910207892F8B7F92FFE3
:1043E0008460877F92FF88607FCF80910307982F3A
:1043F000909590FB80F990FB81F986CF9091020710
:10440000892F8F7B96FF80646FCF0E9482149091DA
:104410000207892F97FB87F9805866CF61E08EE00D
:1044200090E00E944A3562CF60E0F9CF9091020798
:10443000892F8F7E94FF806157CF90910207892F3B
:104440008E7F90FF816050CF90910307892F877FE7
:1044500093FF886059CF89E241CF9272F801E05210
:10446000F847EB30F10508F06AC0EA5EF94C0C94AD
:10447000723407374CE7140709F065C081E00E94E9
:10448000990682C08091F40680FF1EC0282F2E7FDF
:104490002093F4063091F5064091F6065091F70608
:1044A0006091F8067091F9068091FA069091FB06EA
:1044B0000E94E5190E94570B8091F306816080935A
:1044C000F3060E94BD0A61CE81608093F40661E02C
:1044D000869586950E94101D58CE911529F00E9450
:1044E0007A1D53CE9115D9F30E94661D4ECE9115BB
:1044F00029F00E94FD1A49CE9115D9F30E94EB1ABA
:1045000044CE911529F00E94241B3FCE9115D9F37A
:104510000E940F1B3ACE911529F00E944E1B35CEFA
:104520009115D9F30E94391B30CE911529F00E94C4
:104530003D1A2BCE9115D9F30E941B1A26CE0737B0
:104540005CE71507F1F008379CE7190719F19801A6
:10455000205E32452032310518F5811138C00F71C7
:1045600081E090E0FC0102C0EE0FFF1F0A95E2F728
:104570008F016E2F83E00E944A35802F0E947006C3
:1045800004CE81E00E94860643E062E081E00E9462
:104590002707FBCD811511F082E0F4CF82E06FCFC9
:1045A0008115A9F00A35FCE71F0709F49AC008F045
:1045B00072C001303CE7130709F491C003304CE7A7
:1045C000140709F486C001151C4709F475C0F601EB
:1045D0008581E080F180811509F487C0C7010E94C0
:1045E0008312182F682FC7010E94B006B701812FD0
:1045F0000E946E120E94E7088C01F601A580E680F9
:10460000E2942FE0E22280910107877001F1BA2C39
:10461000A114F1F0812F807F803461F080E2800F5F
:104620008830A8F0812F807E803221F4023078F02B
:10463000E11469F08091030782FF09C082E00E94C3
:104640008807809101078770BB24B3948111B12C36
:10465000812F82958F70883009F436C108F065C0CB
:10466000843008F047C0823008F470C0212F2F70CA
:10467000F22E107F103219F0F29480EFF822013000
:1046800008F49EC009F4E6C0A11409F4F2C0E114D4
:1046900009F4B4C074C00B358CE7180721F1809180
:1046A0000307002482FF0394802D0C351C4709F07A
:1046B0008ECF0E9465118BCF0E948214EFEFF4E33E
:1046C0002CE0E150F0402040E1F700C000000E94E3
:1046D000EA0E6FEF7FEF80E090E00E9468350E9465
:1046E000AC1481E0E6CF80E0E4CFC7010E94ED0684
:1046F000182F7CCF09F4CEC0B11409F414C18091F5
:10470000010780FD10C1F601158286958695869574
:104710000E948606C6010E94EE1F809101078695C1
:10472000869586950E949906FEC0893009F440C19D
:104730008A5F8F70823000F7023F09F04AC1812FF3
:104740008F71A11043C10E948606EBC0F12FFF704C
:10475000FF2E103118F0F29490EFF922A114B9F065
:10476000F11469F080E2800F883010F0011109C067
:104770008091FC068F298093FC060E945013802FA5
:104780002FC0809104078F2980930407F6CF802FD4
:104790000E941314F11409F4AFCF80E2800F883027
:1047A00010F0011104C08F2D0E94D60706C0F094AE
:1047B000809104078F21809304070E9450139CCF9F
:1047C0008091030782FD16C0A11469F0F11439F03D
:1047D0008091FC068F298093FC060E94501380E094
:1047E0000E94AA1389CF80E00E941314F11409F4E7
:1047F00083CFD9CFA114A1F0E11004C08F2D0E9466
:1048000061147ACF31E0E31277CF8091FD069F2DBE
:104810009823F91609F470CF8F298093FD066CCF89
:10482000E1106ACF8F2D0E9473149091FD068F2D99
:10483000892329F08F2D809589238093FD0680910F
:10484000FE069F2D982309F457CFF094F822F0929A
:10485000FE0652CFA11429F046E0E41608F04CCF32
:10486000CDCF55E0E51608F047CF8F2D0E94731489
:1048700043CFE114D1F3093349F48FEF97EEE3E02E
:1048800081509040E040E1F700C00000802F0E947E
:10489000131432CF812F869586958370813058F01E
:1048A00009F02ACFC8019370A11002C080E090E007
:1048B0000E941D0E21CFC8019370A11002C080E09C
:1048C00090E00E94F80D18CF812F8370C9F5A110D8
:1048D00028C0802F829586958770880F880F402F7B
:1048E0004F70082E01C0440F0A94EAF7202F207160
:1048F00004FF06C02FE001C0220F8A95EAF7209539
:104900001695169513701230B1F0822F842B133048
:1049100031F08091FF06113059F0242B82230E9440
:1049200070060E94E00D60E0C6010E94B0123CCC0F
:10493000842B822BF4CF242B8091FF068227EFCF8C
:10494000A11459F110FFEDCF802F829586958770C5
:10495000880F880F402F4F70082E01C0440F0A9413
:10496000EAF7202F207104FF06C02FE001C0220FBC
:104970008A95EAF72095169516951370123099F0DE
:10498000822F842B133031F080910007113041F0D9
:10499000242B82230E947B06C4CF8230A8F6C1CF8D
:1049A000842B822BF7CF242B809100078227F2CF14
:1049B0001F70A11439F0812F0E948606802F0E945B
:1049C0006114AFCF802F0E947314812F0E9499062B
:1049D000A8CF70F4003FC9F0013F91F0A11409F491
:1049E00050C0E11409F44AC0802F0E94AA1399CF45
:1049F000033FF9F0043F91F79091030792FD25C022
:104A0000812F8F71A11411F39ECEA11479F0F5E0DE
:104A1000EF1608F086CF1F7181E0012E01C0880FCC
:104A20000A94EAF7909100078927B4CF26E0E216AE
:104A3000F0CF80E0A11409F4ADCF1F7181E0012E09
:104A400001C0880F0A94EAF7A5CFA11461F0812F65
:104A50008F7192FF78CE982F990F990F990F9360CD
:104A60009093010770CE81E00E94880732E0E31640
:104A700008F457CF82E00E94880753CF812F8F71AF
:104A800062CEE11479F0093349F44FEF57EE83E039
:104A9000415050408040E1F700C00000802F0E944C
:104AA00013143FCF812F8F7191CF9091FC06063167
:104AB000FCE71F0709F0D1CC9A7A81E0911101C07F
:104AC00080E08093F00685E3911101C089E20E94A5
:104AD000420E0E94501359CBA0E0B0E0E2E7F5E2AD
:104AE0000C94153480914507803108F048C08091BE
:104AF0004407811509F443C0E0910607209105079A
:104B00003091400740913F072E17C9F16E2F70E09A
:104B100087E0E89FF0011124DF01A95FB84F1496E8
:104B20008C911497811571F111968C9111978313C3
:104B300029C08C91841326C015968C9115978111EC
:104B400021C012968D919D91A0914107B09142078D
:104B50008A1B9B0B883C9105A8F4809145078F70B8
:104B6000806180934507E35FF84F80818F7080619B
:104B700080838FE397E00E94EE1F0E947607E2E0B9
:104B80000C943134FB01E395E770BECFADE0B0E0AB
:104B9000ECECF5E20C940A348C0186E0F801DE01BD
:104BA000189601900D928A95E1F7F801F5808481BD
:104BB0009FE3892E97E0992E70904307711018C0DB
:104BC000811599F0F11409F415C1C8010E94E6128B
:104BD000811509F40FC187E0F801AFE3B7E0019058
:104BE0000D928A95E1F70E946C25FF24F39456C03C
:104BF000D080A280B380C0904407209141073091BB
:104C00004207A501421B530BC11409F4C3C0483C21
:104C1000510508F079C0811541F3809140079180DA
:104C2000E090450750E1E51608F059C0981215C00C
:104C300080913F078D1111C0F1104BC08E2D8F70E8
:104C40008061809345078FE397E00E94EE1F80917B
:104C50004507F8018683F12C21C0F1103AC040E0ED
:104C6000692D8D2D0E944F0740E0692D8D2D0E94EA
:104C70004F07F82E8111EFCF888599850E94D212B7
:104C8000292F22952F70903470F49F702230A0F05D
:104C90009115B1F0F8019681903190F48F2D2D96F9
:104CA000EDE00C9426342A5F2F70223068F0C801A2
:104CB0000E94EE1FFC2CF2CF911511F0811571F3BB
:104CC000805E883058F3F3CF803F40F3815F8330BC
:104CD000F9CF80914507816080934507BCCF98123A
:104CE0003AC080913F078D1136C0F11034C0E68282
:104CF000C8010E94EE1F87E0F801AFE3B7E0019022
:104D00000D928A95E1F771CFE090450740E1E416F6
:104D100050F48FE397E00E94EE1F87E0F4011192B8
:104D20008A95E9F798CF811509F45FCF90914007F4
:104D30008181981310C080913F078D110CC0F11034
:104D40000AC0E682C8010E94EE1F87E0F4011192BA
:104D50008A95E9F74ACFC8010E94E612811509F445
:104D600049C0F11409F446C0F0E2EF1608F433CF5D
:104D700080913F079091400789839A83AB82BC82E0
:104D80007D821E82809145078F83CE0101960E940D
:104D9000EE1F21CF483C510508F0BFCF811509F423
:104DA00024CFF11439F1909140078181981318C0F4
:104DB00080913F078D1114C08091450780FD9BCFE6
:104DC000803108F498CF8683807F803F09F490CFAC
:104DD0008681982F907F905F8F70892B868388CFF4
:104DE000C8010E94E6128111F6CE809145078160CC
:104DF00080934507C8010E94EE1FF7CEABE1B0E0FB
:104E0000E4E0F7E20C9413344E8B5F8B688F798F5C
:104E10008A8F192F9B8F9111109204071D8A86E0AB
:104E2000FE017696DE011F9601900D928A95E1F7BC
:104E30000A8D011561F00B8B1C8B61E0CE010F9682
:104E40000E94B01261E0CE010F960E94B0120B8B4F
:104E50001C8B87E0FE013F96DE01189601900D92B3
:104E60008A95E1F7CE0108960E94C625811128C0D7
:104E7000209105073091060787E0FE013896DE0194
:104E8000119601900D928A95E1F78C858115C1F0FC
:104E9000822F90E08395877090E038171906D1F043
:104EA00097E0929FD0011124A95FB84FFE0131967F
:104EB00001900D929A95E1F7809305070E9476077D
:104EC0008091060790910507891312C06B96E4E064
:104ED0000C942F340E94821410920507109206073A
:104EE00087E0EFE3F7E0DF011D928A95E9F7E8CF6D
:104EF000B7E08B9FC0011124895F984F0E94C6259F
:104F0000811521F3209106072F5F3F4FC90187705C
:104F100080930607D5CFA6E0B0E0E1E9F7E20C9474
:104F200013340E94C21C8C018091AD069091AE0694
:104F30008017910779F019821A820E94C21CBC0165
:104F400049815A8180E090E00E94FE260093AD06E0
:104F50001093AE062696E4E00C942F34CDB7DEB75E
:104F6000A4970FB6F894DEBF0FBECDBF85B780689B
:104F700085BF85B7806885BF84B7877F84BF0FB63C
:104F8000F894A895809160008861809360001092E9
:104F900060000FBE80E890E00FB6F8948093610047
:104FA000909361000FBE81E08093560189ED99E0F6
:104FB00080931202909313020E9463100E940710C4
:104FC0008091E20084608093E2007894809157069B
:104FD000811599F08091E9001091EC008F7010FB21
:104FE000112717F9182B1092E9008091E80083FD32
:104FF0000E94C8141F701093E90082E084BD93E002
:1050000095BD9AEF97BD80936E001092A7061092FF
:10501000A8061092A9061092AA060E9431138111C7
:1050200002C00E942D128091D80080618093D80028
:105030002AE12A95F1F700C08091D900182F11704C
:1050400080FD04C00E946310109257061093AB06B7
:105050001093AC0610931701111509F4E0C01092DB
:1050600012018BE1809313010E9475328091170128
:105070008091170191E08927880F880F80939E0601
:1050800094E0981B909392060CE911E060EAE62EFA
:1050900061E0F62ED8018D918D018F3F11F00E94B5
:1050A000E309E016F106B1F700EA11E056EAE52E51
:1050B00051E0F52EF80181918F018F3F11F00E9490
:1050C000E309E016F106B1F788E0E6E9F6E0DF0172
:1050D000282F1D922A95E9F7EFE9F6E0DF011D92EE
:1050E0008A95E9F780E090E00E943435853E9E4F36
:1050F00021F40E943113811163C065EE7EEF80E0E0
:1051000090E00E94683560E082E090E00E944A35BD
:1051100081E08093FF0661E083E090E00E944A35E1
:1051200060E074E184E090E00E94683560E086E031
:1051300090E00E944A3560E087E090E00E944A35A6
:1051400060E070E0AB0188E090E00E945C3560E0D8
:1051500083E290E00E944A3560E08CE090E00E949B
:105160004A3560E08DE090E00E944A3519821A824B
:105170001B821C821D821E821F82188648E050E01E
:1051800067E170E0CE0101960E943A3560E070E080
:10519000AB018FE190E00E945C3580E00E940B1231
:1051A0000E942D1260E070E0AB018FE090E00E9461
:1051B0005C3560E070E0AB0183E190E00E945C351B
:1051C00082E090E00E9426358093140484E090E011
:1051D0000E94343580930207909303070E949F1D1D
:1051E000EFEFF6E721E0E150F0402040E1F700C0AA
:1051F00000000E949F1DE091AC0611E0E127EE0F38
:10520000EE0FF0E0EA56F94F808181FF0EC06FEF9C
:105210007FEF80E090E00E9468350E94EA0E8BE10B
:10522000809312018093130121CF83E090E00E94CC
:1052300026350E9470068091AB068127880F8093E7
:105240004A0680E8809322040E94CD306BE070E033
:1052500080EF9AE00E94631B811509F43FC08091A2
:105260004A0665E070E081FD0EC18BEE9AE00E9477
:10527000631B811599F16DE070E089ED9AE00E9461
:10528000631B811559F10E94B80EDC01CB01805AD5
:105290009541AF4FBF4F80934E0690934F06A0931A
:1052A0005006B0935106EAE4F4E080E092E0DF01BA
:1052B0009C011D9221503040E1F7E0932004F093CF
:1052C00021048FEF9FEF80934C0690934D0681E071
:1052D000809355068093520610924B0680911104DC
:1052E00081116AC088E090E00E942E356B017C013C
:1052F00083E290E00E942635282F40E050E0CA016A
:1053000070E0A22F970160E0FC2DC092F406D092CD
:10531000F506E092F6063093F706A093F806109291
:10532000F9061092FA061092FB062091F30623600C
:105330002093F306F43070F525E02093F4061092E4
:10534000F5062FEF2093F60622E32093F70610923E
:10535000F80625E030E04FEF52E30E94E51988E0BF
:1053600090E00E942E356B017C0183E290E00E9468
:1053700026359701C092F406D092F506E092F60623
:105380003093F7068093F8061092F9061092FA0609
:105390001092FB060E94A00A0E94570B0E94A20DC9
:1053A0008091F40680FF05C060E0869586950E9496
:1053B000101D81E0809311048091AB06811102C021
:1053C0000E94803288E191E08093CF069093D006CE
:1053D00080915706853049F480915706853009F44D
:1053E00055C00E9482140E94E00D0E949F1D05E19D
:1053F00014E046E9E42E46E0F42EF701D8019D9131
:1054000080812DE134E02A173B0709F477C03196FB
:105410009817A9F38090AB06D12CD701CD907D01D0
:10542000F80191908F019C1429F19C24AA24A39443
:10543000B12C892D8A21B9F08114A9F0B982DA82C0
:105440000E94C21C8B839C83F1E0FD8391E08C2D34
:105450008A2109F490E09E8349815A816B817C8185
:105460008D810E94FE26B394AA0C26E0B212E1CFF1
:10547000F801C292D39438E0D312CFCF0E94CC0E61
:10548000DD24D39440C086EE9AE0F1CE8091570699
:10549000843031F10E94A41B1092120488E190E044
:1054A000A0E40FB6F894A895809360000FBEA09377
:1054B000600083B7817F846083BF83B7816083BFCF
:1054C0007894889583B78E7F83BF0FB6F894A8959C
:1054D00080916000886180936000109260000FBE30
:1054E0000E949F1DE6E9F6E0808181117DC431961E
:1054F0002EE936E02E173F07B9F76ECF98138ACF03
:105500000E948B27D12C8091F206811509F46EC080
:105510008091F106E091F406E695E695E81BE093AC
:105520008A06853109F44BC208F0F5C1893009F4C7
:105530003AC208F0E1C1823009F41FC2863009F492
:1055400027C200ED17E033E0E32E3AE0F32E80911E
:105550008B06811561F010928B060E94D61C8093F9
:1055600088069093890610928C0610928D060E94F0
:10557000D61C2091880630918906AC01421B530B42
:105580004F3F5F4798F540911F044115B1F01092CD
:105590001F0440911D0450911E04841B950B8F3FE6
:1055A0009F4758F4405D5A4840931D0450931E0491
:1055B0008091F30688608093F306A0908C06B090EB
:1055C0008D06200F311F209388063093890688E8C6
:1055D00096E0F701099580918C0690918D06892BB4
:1055E00029F4AB2819F081E080931F0480915506BF
:1055F000811509F44AC100915306109154060E9486
:10560000C21C801B910BC29708F45FC00E94C21C91
:1056100080935306909354068AE494E08093200488
:10562000909321048091AB06811509F415C289E796
:105630009BE00E94741C809100070E9456068230F5
:1056400009F4D0C108F0C6C18111C9C181E79BE04E
:105650000E94871C8091EE06805D0E94BE1B86E53D
:105660009BE00E94741C8091ED06805D0E94BE1B31
:1056700082E59BE00E94741C8090EB069090EC0603
:1056800080912201909123018816990609F0B0C1FA
:1056900080912904803209F0ABC1E3E2F4E08F018C
:1056A00081918032E1F3F80101900020E9F7319710
:1056B0007F010E151F0508F4C9C180E59BE00E941B
:1056C000741C809157010E94BE1B80914C069091E2
:1056D0004D06892B09F4C0C080915506811509F447
:1056E000BBC080914B068111B7C00E94781B80918E
:1056F0004C0690914D06009709F4AEC080FBEE2455
:10570000E0F8F12C812C80FD0FC041E050E0839443
:105710007A01082C02C0EE0CFF1C0A94E2F79701F4
:1057200028233923232B99F380914A0680FF99C1BE
:10573000982D990F990F990F37E0390F80E023E0EA
:1057400090932601809329013093270120932A0109
:1057500024E630E047E050E064E271E088E70E9430
:105760000B31892B09F078C0E0E28E9E40011124B4
:1057700080914A0680FF86C1EAE2F4E080E2DF0120
:105780001D928A95E9F736E9632E31E0732E42E9DE
:1057900051E0F30191913F01DA018D91AD01F401E6
:1057A000E80FF11DEBA3FCA3E92FF0E0E65DFB4F52
:1057B00080E090E027E0C22EC81A11E0082E01C058
:1057C000110F0A94EAF7ABA1BCA1A65BBB4FA9A33A
:1057D000BAA370E0A9A1BAA16D91A9A3BAA361234C
:1057E0002C2D271B277030E0B62F022E01C0BB0FD7
:1057F0000A94EAF7319521953109277001C0669521
:105800002A95EAF76B2B2081622B60837F5F7830CB
:1058100009F7019631968830910561F62AE931E061
:105820002615370509F0B5CF04E610E020E230E098
:105830004AE254E060E488E70E94B031892B61F4C9
:10584000E094F09480914C0690914D06E822F92264
:10585000E0924C06F0924D06809152068115A9F017
:105860000E94B80E00914E0610914F0620915006EE
:1058700030915106601B710B820B930B6F3F7F4F72
:105880008F4F9F4710F40E94A41BD1100E94781BD9
:105890000E94E00D90915606891721F080935606DC
:1058A0000E94B80E80915706843009F091CD83E0B4
:1058B0008093E9008091E80082FF8ACD8091E80022
:1058C00090E085FF06C00E94CE0F811509F4E2C06A
:1058D00091E08091E8008B778093E800911509F4BE
:1058E00077CD8981EFEFE80FE33108F0FDC0F0E0FC
:1058F000EF5DF94C0C9472348F3009F022CEE695AE
:10590000F0E0ED5FF44FE4910E2F10E0BEEDEB2ED2
:10591000BBE0FB2E1CCE04EF11E07CE6E72E7DE021
:10592000F72E843209F413CEA8F408E210E06EEEEC
:10593000E62E6CE0F62E883109F409CE833209F0A8
:1059400000CEEEEFFAE005911591F5E0EF2EFBE0C9
:10595000FF2EFDCD853209F0F4CD8E2F63E00E943D
:105960004434E92FF0E0E550F54FE4910E2F10E0BC
:10597000E9E1EE2EE9E1FE2EEACDF0E0E45FF44F3E
:10598000E4910E2F10E02EE7E22E2BE0F22EDFCD79
:10599000F0E0E75FF44FE4910E2F10E091E4E92E80
:1059A0009BE0F92ED4CDE695F0E0EA5FF44FE49168
:1059B0000E2F10E089E9E82E8BE0F82EC8CDF0E03C
:1059C000E050F54FE4910E2F10E0ACE6EA2EACE08B
:1059D000FA2EBDCD833049F088E59BE039CE8BE6C9
:1059E0009BE036CE85E69BE033CE8EE59BE030CE65
:1059F000809222019092230180E280932904A12CBD
:105A0000B12C1092280458E2E52E54E0F52E8501C1
:105A1000B401C5012AE030E040E050E00E94BF350B
:105A2000605D603341F40115110529F089288A2849
:105A30008B2809F460E2D7016E937D0149015A0178
:105A40000F5F1F4F0530110519F727CED8018D9133
:105A50008D010E94BE1B2DCE80E19BE00E94741C34
:105A600034CEB0E28B9EC0011124880F892F881F8D
:105A7000990B9195282F982D9295990F90763FE14B
:105A8000390F5ECEA401465B5B4F04E610E020E2D6
:105A900030E0D0CE80E2E82EF12C8E010F5F1F4F58
:105AA0008091E80085FD0AC08091E8008B778093A3
:105AB000E8000E94CE0F811599F30ACF8091F10082
:105AC000D8018C93B1E0EB1AF10809F401CFE6CFCD
:105AD0001A828CE08B831AC08A81833049F138F4B2
